:10000000D7C1000006C2000004C2000002C2000006
:1000100000C20000FEC10000FCC10000FAC10000E7
:10002000F8C10000F6C10000F4C10000F2C10000F8
:10003000F0C10000EEC10000ECC10000EAC1000008
:10004000E8C10000E6C10000E4C10000E2C1000018
:10005000E0C10000DEC10000DCC100004CC20000B5
:10006000D8C100000C942C190C940319D2C10000C3
:10007000D0C10000CEC10000CCC10000CAC1000048
:10008000C8C10000C6C10000C4C10000C2C1000058
:10009000C0C10000BEC10000BCC10000BAC1000068
:1000A000B8C10000B6C10000B4C10000B2C1000078
:1000B000B0C10000AEC10000ACC10000AAC1000088
:1000C000A8C10000A6C10000A4C10000A2C1000098
:1000D000A0C100009EC100000C94DA180C94B11865
:1000E00098C10000D315D615C515C915CF150D1625
:1000F000DA15DE15E415E815EC15F215F615FA1506
:100100000D160016041608160F1A141A191A231AB7
:100110002D1AA61A371A3F1A471A511A5B1A651A6E
:10012000741A7E1AA61A881A921A9C1A4B1B561D0C
:10013000561D561D561D321D561D561D081B561D9B
:10014000561D561DDA1B561D561D031C561D9C1BA5
:10015000301C1F1C1F1E1F1E1F1F1E1F1E1F49326B
:100160004320696E6974616C697A65642073756394
:1001700065737366756C6C79004932432070756CD9
:100180006C757073206D697373696E6700005EBC77
:10019000E2613FDD83C29C7E20A3FD1F419DC32100
:1001A0007FFCA2401E5F01E3BD3E6082DC237D9F99
:1001B000C1421CFEA0E1BF5D0380DE3C62BEE002E6
:1001C0005CDF81633D7C22C09E1D43A1FF4618FA7F
:1001D000A427799BC584DA3866E5BB5907DB8567B8
:1001E00039BAE406581947A5FB7826C49A653BD965
:1001F00087045AB8E6A7F91B45C6987A24F8A6449E
:100200001A99C7257B3A6486D85B05E7B98CD2304A
:100210006EEDB3510F4E10F2AC2F7193CD114FAD67
:10022000F3702ECC92D38D6F31B2EC0E50AFF11330
:100230004DCE90722C6D33D18F0C52B0EE326C8E4D
:10024000D0530DEFB1F0AE4C1291CF2D73CA94760E
:1002500028ABF517490856B4EA6937D58B5709EB2F
:10026000B536688AD495CB2977F4AA4816E9B755EC
:100270000B88D6346A2B7597C94A14F6A8742AC815
:1002800096154BA9F7B6E80A54D7896B35000021BB
:1002900000240027002A002D003000330001010057
:1002A00000040107010A0100002200250028002B9C
:1002B000002E003100340002010000050108010B8E
:1002C00001000020002300260029002C002F00320E
:1002D00000000100000301060109010505050507ED
:1002E0000508080808020202020A0A0808040404B1
:1002F00004010101010101010103030303030303DD
:1003000003040707070C0C0C0C0C0C0C0C0202026B
:100310000206060606060606060B0B0B0B0B0B0B5E
:100320000B010210202008081020401020408002FD
:10033000010201080402010102040810204080802B
:1003400040201008040201800402018040201008AF
:100350000402010804020101020408102040800187
:100360000204081020408000000A0B02090C0D0E48
:100370000807030401000000000000000000000066
:10038000000000000000000000000000000000006D
:10039000000000121110000000000000000000002A
:1003A0000000000000000000000000000000A32C7E
:1003B00011241FBECFEFD1E2DEBFCDBF00E00CBFE6
:1003C00020E1AAE7BDE001C01D92A83BB207E1F71A
:1003D0001DE0A0E0B2E0E4EAF8E600E00BBF02C0F6
:1003E00007900D92AA37B107D9F711E0C8EDD1E017
:1003F00000E006C021970109802FFE010E941D32F6
:10040000C73DD10780E00807A9F70E9483210C941B
:100410005034F6CD3FB7F8948091980D9091990D96
:10042000A0919A0DB0919B0D26B5A89B05C02F3FBA
:1004300019F00196A11DB11D3FBFBA2FA92F982F0A
:100440008827820F911DA11DB11DBC01CD0143E084
:10045000660F771F881F991F4A95D1F7089582E587
:1004600093E00E94D2128EE591E00C94ED128F92EF
:100470009F92AF92BF92CF92DF92EF92FF926B0169
:100480007C01C8DF4B015C01C114D104E104F1041B
:10049000E9F0C0DFDC01CB0188199909AA09BB0981
:1004A000883E9340A105B10578F321E0C21AD10836
:1004B000E108F10888EE880E83E0981EA11CB11CAB
:1004C000C114D104E104F10421F7DECFFF90EF90D5
:1004D000DF90CF90BF90AF909F908F9008952FB7EF
:1004E000F8946091940D7091950D8091960D909176
:1004F000970D2FBF08951F920F920FB60F921124E0
:100500002F933F938F939F93AF93BF938091940DBD
:100510009091950DA091960DB091970D3091930DFE
:1005200026E0230F2D3720F40296A11DB11D05C032
:1005300029E8230F0396A11DB11D2093930D8093ED
:10054000940D9093950DA093960DB093970D809177
:10055000980D9091990DA0919A0DB0919B0D0196D7
:10056000A11DB11D8093980D9093990DA0939A0DA4
:10057000B0939B0DBF91AF919F918F913F912F9120
:100580000F900FBE0F901F90189581E090912D0253
:10059000953509F080E090912C02953509F48F5F34
:1005A00090912B02953509F48F5F90912A02953531
:1005B00009F48F5F90912902953509F48F5F0895B2
:1005C00081E090912D029A3A09F080E090912C02FE
:1005D0009A3A09F48F5F90912B029A3A09F48F5F4F
:1005E00090912A029A3A09F48F5F909129029A3ADF
:1005F00009F48F5F0895EF92FF920F931F93CF93AB
:10060000DF93E82E8BE692E00E94861188E0E89E58
:1006100070011124C0E0D0E08EE692E00E948611C5
:100620008E010E0D1F1D0A5C114FF8018081803173
:1006300020F484E495E00E948611F801808190E026
:100640000E946E11C730D10521F081E792E00E942F
:1006500086112196C830D105F9F684E792E0DF9142
:10066000CF911F910F91FF90EF900C94861185E52B
:100670008093280260E089E10E947D1987E792E07B
:100680000E9486110E94641181E892E00E94861106
:100690000E94641160E08FE10E947D1961E084E4B2
:1006A0000E947D1961E08EE30E947D1960E080E484
:1006B0000E947D1960E08FE30E947D1964EF71E074
:1006C00080E090E0D4DE61E082E40E94AC1960E05A
:1006D00082E40E947D1961E070E080E090E0C7DE76
:1006E00060E082E40E94AC1960E082E40E947D191F
:1006F00064EF71E080E090E0BADE61E085E00E94A6
:100700007D1981E080939D0D87E992E00E9486111A
:100710000E9464118FE992E00E9486118091270265
:10072000853521F489E69BE00E948611809127029D
:100730008A3A21F485E79BE00E9486110E946411A9
:1007400080912702853521F460E08AE10E947D19BD
:10075000809127028A3A21F461E08AE10E947D19A2
:1007600087E992E00E9486110E9464118FE992E06D
:100770000E94861180912702853521F489E69BE04D
:100780000E948611809127028A3A21F485E79BE036
:100790000E9486110E94641164E670E080E090E09F
:1007A00066DE87E792E00E9486110E9464118AEA61
:1007B00092E00E9486110E94641161E088E10E942B
:1007C0007D1987E992E00E9486110E9464118AEBEC
:1007D00092E00E9486110C946411EF92FF920F93A5
:1007E0001F93CF93DF93EC0139818881682F70E0EC
:1007F0004A8150E0E2E5F1E091E09E1B292F2E0FA7
:10080000231728F42491420F511D3196F7CF33302E
:1008100020F0837011F44F5F5F4F8DE691E0689F89
:100820009001699F300D789F300D112421503109BE
:100830006D5F7F4F7695679576956795260F371F85
:10084000240F351FA8E1B0E00E94D5302B817B0139
:100850008C01E20EF11C011D111DA8019701ACE3F2
:10086000B0E00E94CB302C817B018C01E20EF11CA8
:10087000011D111DA80197010E94CB302D81DC01C3
:10088000CB01820F911DA11DB11DBC01CD0160588E
:100890007C4B8249974CDF91CF911F910F91FF9034
:1008A000EF90089582E00E945519019711F085E5B7
:1008B00008958AEA089588EC90E00E94D21280E0C0
:1008C00090E00C94ED1261E08FE10E947D1961E0EF
:1008D00081E20C947D1987E792E00E9486110E94C4
:1008E00064118CEC92E00E9486110E94641185E5EF
:1008F0008093440260E081E10E947D1960E08EE116
:100900000E947D1960E080E20E947D1960E08FE125
:100910000E947D1960E081E20C947D1960E084E41E
:100920000E947D1961E08EE30E947D1960E080E401
:100930000E947D1960E08FE30E947D1960E08EE1E6
:100940000E947D1960E080E20E947D1960E081E2F2
:100950000E947D1960E08FE10E947D1960E088E1CE
:100960000C947D1961E0FC0180810C943514EF92A8
:10097000FF920F931F93CF93DF93EC0108EE13E0E8
:1009800084E2E82EF12C40EF61EE88810E94FE1295
:10099000CE01E8DF80FF08C0F7013197F1F7015081
:1009A000110989F791E09983DF91CF911F910F9100
:1009B000FF90EF9008951F93CF93DF93EC01162FD4
:1009C000D6DF412F50E04095509584E0440F551FED
:1009D0008A95E1F7412B62ED88810E94FE12CE01DB
:1009E000C1DF811711F084E08983DF91CF911F91DE
:1009F0000895CF93DF93EC0143EC61EE88810E9470
:100A0000FE12CE01DF91CF91ADCFEF92FF921F93F7
:100A1000CF93DF931F92CDB7DEB77C01162F4983AA
:100A2000A6DF4981442331F0C701E3DF682F64600A
:100A3000C701C1DF412F65EAF70180810F90DF9187
:100A4000CF911F91FF90EF900C94FE12CF93DF9304
:100A5000EC018DDFCE01CDDF60E0CE01ACDFCE0159
:100A600086DF64EB88810E942013CE0180DF82FF45
:100A700002C092E0998386958170DF91CF910895AD
:100A80000F931F93CF93DF931F92CDB7DEB78C01E7
:100A900069830E9484306981681741F0C8010F9012
:100AA000DF91CF911F910F910C948C300F90DF91BB
:100AB000CF911F910F910895FF920F931F93CF93A2
:100AC000DF9300D01F92CDB7DEB7ECDEF82E809119
:100AD0008A0DF81609F447C085E5F81244C08091E4
:100AE0009C0D8A3A11F4BBDC01C0E5DE65E581E0CE
:100AF00090E0C6DF65E582E090E0C2DF65E583E077
:100B000090E0BEDF65E584E090E0BADF65E585E072
:100B100090E0B6DF8AEA80930802E1DC6093860DFC
:100B20007093870D8093880D9093890D80ED97E0E9
:100B3000A0E0B0E08093040290930502A093060227
:100B4000B0930702CCDC6093820D7093830D809389
:100B5000840D9093850D10927E0D10927F0D109252
:100B6000800D1092810D809108028A3A09F03CC0F4
:100B7000B6DC0091860D1091870D2091880D309183
:100B8000890DDC01CB01801B910BA20BB30B0091F3
:100B90000402109105022091060230910702081705
:100BA00019072A073B0700F585E58093080287E7C8
:100BB00092E00E9486110E94641188E093E00E94F6
:100BC00086110E9464118BE193E00E9486110E94BD
:100BD000641180919C0D8A3A09F0BDC040DC61E04F
:100BE00089E10E947D1977DE80918A0DF81671F1F6
:100BF0008AEAF812B2C080919C0D8A3A11F42FDC77
:100C000001C059DE85E5809308026AEA81E090E040
:100C100037DF6AEA82E090E033DF6AEA83E090E05F
:100C20002FDF6AEA84E090E02BDF6AEA85E090E05B
:100C300027DF87E792E00E9486110E9464118FED02
:100C400092E00E9486110E94641143C085E5F8126B
:100C50003DC045DC0091820D1091830D2091840DE3
:100C60003091850D601B710B820B930B28EE33E0E6
:100C700040E050E00E94A93080917E0D90917F0D60
:100C8000A091800DB091810D281739074A075B07A5
:100C900009F455C081EF92E029833A834B835C834A
:100CA0000E94861129813A81C9010E94F5110E9492
:100CB000641129813A814B815C8120937E0D3093B0
:100CC0007F0D4093800D5093810D39C08AEAF81250
:100CD00036C005DC00917A0D10917B0D20917C0DC2
:100CE00030917D0DDC01CB01801B910BA20BB30B6E
:100CF0000091000210910102209102023091030242
:100D0000081719072A073B07D0F4E9DB60937A0D2F
:100D100070937B0D80937C0D90937D0D80E197E225
:100D2000A0E0B0E08093000290930102A093020241
:100D3000B093030280919C0D8A3A09F490DBF09203
:100D40008A0D0F900F900F900F90DF91CF911F9110
:100D50000F91FF900895AFDD42CF85E5F812EFCFF8
:100D600078CF0C948430CF93DF93EC018CE293E046
:100D70000E9486110E94641184E393E00E94861110
:100D8000CE010E94F5110E946411D093F60DC0931C
:100D9000F50DDF91CF91089580917B00877F80933F
:100DA0007B0080E480937C0080917A008064809353
:100DB0007A0080917A0086FDFCCF60917800809166
:100DC000790070E0782B80E090E00E946F2F2DE09A
:100DD00038E643E55BE30E94D02F26EF38EE45E48A
:100DE00053E40E94D02F0E94B131CB01089571E0ED
:100DF000509A519800000000000030D450982ED432
:100E0000A894000000000000489B14D4B2F088941D
:100E100049990894771F60F7509A803011F05198E3
:100E200001C0519A00000000000018D45098A89406
:100E300000000000489BFED311D400000000509A2F
:100E4000872F9927089580E208950894881F01C08C
:100E5000880FB9F0509A00000000000018F400005C
:100E6000519802C0519A00C0F9D35098A89400003C
:100E700000000000489BDED312F4882712C0EED396
:100E8000E7CF509A000000005198E8D399278827AF
:100E90005098A8940000489BCDD37AF3499B81E0F9
:100EA000DDD300000000509A089581E00895509A23
:100EB000519AD4D35098D2D3489BBCD35198CEC327
:100EC00008958F93F0E0EAE08F918F93489BB2D31F
:100ED000519AC4D3BADF882321F4E9DF319709F0AE
:100EE000F3CF99270F90089508951F93CF93DF9321
:100EF000FC0135812AE0832F622F0E94EA31982F6E
:100F0000990F980F990F930F90938B0D3481832F26
:100F10000E94EA31982F990F980F990F930F909391
:100F20008C0D3381832F0E94EA31982F990F980FEF
:100F3000990F930F90938D0D10928E0D3281832F08
:100F40000E94EA31982F990F980F990F930F909361
:100F50008F0D3181832F0E94EA31982F990F980FBE
:100F6000990F930F9093900D3081832F0E94EA3157
:100F7000982F990F980F990F930F9093910D88E6E2
:100F80000E94691290913002891315C0F89480ED87
:100F900098DF882359F080E058DFCBE8DDE01C2F94
:100FA000195F899152DF1C13FCCF03C088E60E94B1
:100FB00023117DDF78946FE088E60E943514482F76
:100FC0004F776FE088E6DF91CF911F910C94FE126E
:100FD0005F926F927F928F929F92AF92BF92CF92C9
:100FE000DF92EF92FF920F931F93CF93DF93CDB7D2
:100FF000DEB76C970FB6F894DEBF0FBECDBF6C01A5
:10100000562E9E012F5F3F4F59018CE0D9011D9252
:101010008A95E9F7E12CF12C712C612C00E010E0AD
:10102000F60184819581E816F90608F05BC0D601C7
:10103000ED91FC91309729F41092920DE2E9FDE0D8
:1010400002C0EE0DFF1D8081F70131964F018F35F3
:1010500009F506301105F4F49701472D562DB60118
:10106000CE010D960E942C178D859E85009709F460
:10107000D8C00E94B02EF801EE0FFF1FEA0DFB1D35
:1010800071836083CE010D960E94E7160F5F1F4F9C
:10109000782C692CD60114962D913C911597C90195
:1010A0000197E816F906E1F406301105CCF4472D56
:1010B000562DB601CE010D960E942C178D859E856A
:1010C000009709F4B2C00E94B02EF801EE0FFF1F86
:1010D000EA0DFB1D71836083CE010D960E94E71619
:1010E00074019ECF552009F482C0063011050CF022
:1010F000A0C0F5D928EE33E040E050E00E94A930CE
:101100006B857985EF81FD81AB8189819A81803DF5
:10111000B7E09B0710F0805D97408D87AE87FF8713
:10112000E88B798B6A8BCE010D96298F3A8F4B8F86
:101130005C8F53DB298D3A8D4B8D5C8D89019A0133
:10114000005813442D463843600F711F821F931FB0
:101150002CE3C22ED12CE12CF12CA70196010E9488
:10116000A930688FCA01B901A70196010E94A93070
:101170006F8BCA01B90128E130E040E050E00E94E5
:10118000A9306E8B80E0E3E9FEEF91E0482F4370D9
:1011900009F090E061E0680F492F50E0DA01A359AF
:1011A000BE4F2A173B0738F0CF01841B950B280F41
:1011B000391F862FEACF8B8B81E0E82FF0E0EF5AC2
:1011C000FE4FE491992319F0823009F4EF5FF0E0CB
:1011D00041E0480F2E173F0720F02E1B3F0B842FB6
:1011E000ECCF8C8B2F5F2D8BCE01439618C0063031
:1011F0001105FCF42B8539854F815D816B818981D7
:101200009A81803DE7E09E0710F0805D97408D87D2
:101210006E875F87488B398B2A8BCE010D9665DEF2
:1012200008C060E070E0CB0126CF60E070E0CB0149
:101230004CCF6C960FB6F894DEBF0FBECDBFDF91DA
:10124000CF911F910F91FF90EF90DF90CF90BF90C3
:10125000AF909F908F907F906F905F900895509A7D
:10126000FDD15198FBD15098F9D1489BE3D1519AC7
:10127000F5D1EBCD81E00895CF92DF92FF920F93ED
:101280001F93CF93DF93CDB7DEB727970FB6F894B0
:10129000DEBF0FBECDBF8C0188E60E94691290911F
:1012A000300289131EC0F89480ED0BDE8823A9F06C
:1012B00080E0CBDD81EDD3DFCE0101966C01F12C16
:1012C00080E095DDF60181936F01F394F6E0FF1263
:1012D000F7CF81E08CDD8F8302C088E6B4D7E7DDED
:1012E000789489818F772A813B814D815E816F81DE
:1012F000762F72957F709AEF799F600D1124F80117
:101300006083652F62956F70699F500D1124518322
:10131000542F52955F70599F400D11244283432FE3
:1013200042954F70499F300D11243383322F3295EF
:101330003F70399F200D11242483282F22952F7070
:10134000299F800D11248583C80127960FB6F89434
:10135000DEBF0FBECDBFDF91CF911F910F91FF90E8
:10136000DF90CF900895CF92DF92EF92FF92CF93CC
:10137000DF93CDB7DEB72C970FB6F894DEBF0FBE64
:10138000CDBFCE01019678DFCE01019626DA6B0142
:101390007C018C8190E0A0E0B0E086319105A10550
:1013A000B1051CF08B818F5F05C04397A105B10586
:1013B00094F48B819A8129812F839887898783E18F
:1013C0008A871B861C86CE01079607DA6C197D0971
:1013D0008E099F0903C060E070E0CB012C960FB628
:1013E000F894DEBF0FBECDBFDF91CF91FF90EF909D
:1013F000DF90CF9008950F931F93CF93DF93CDB7D6
:10140000DEB76D970FB6F894DEBF0FBECDBF8C016F
:10141000CE01429631DF8A8990E0F8011182108274
:1014200013821282158214824AE0BE016F5F7F4FE1
:101430008053984F0E943F2FBE016F5F7F4FC801BE
:101440000E94D2164AE06B89CE0148960E94EC16A3
:101450006CE473E0CE0101960E941817BE01685E2D
:101460007F4FCE0101960E947616BC01C8010E94F2
:101470008716CE0101960E94E716CE0148960E947B
:10148000E7164AE06C89CE0148960E94EC166CE49F
:1014900073E0CE0101960E941817BE01685E7F4F6F
:1014A000CE0101960E947616BC01C8010E948716E3
:1014B000CE0101960E94E716CE0148960E94E716DB
:1014C0004AE06D89CE0148960E94EC166EE473E006
:1014D000CE0101960E941817BE01685E7F4FCE01B3
:1014E00001960E947616BC01C8010E948716CE01A3
:1014F00001960E94E716CE0148960E94E7164AE040
:101500006E89CE0148960E94EC1660E573E0CE012C
:1015100001960E941817BE01685E7F4FCE010196AA
:101520000E947616BC01C8010E948716CE01019662
:101530000E94E716CE0148960E94E7164AE06F899E
:10154000CE0148960E94EC1660E573E0CE0101964C
:101550000E941817BE01685E7F4FCE0101960E945F
:101560007616BC01C8010E948716CE0101960E9422
:10157000E716CE0148960E94E716C8016D960FB691
:10158000F894DEBF0FBECDBFDF91CF911F910F91B9
:101590000895CF92DF92EF92FF92CF93DF93CDB772
:1015A000DEB72C970FB6F894DEBF0FBECDBF82E535
:1015B00093E0ACD689D6CE0101965EDECE010196CF
:1015C0000CD96B017C0181E693E0A0D6C701B6017E
:1015D00053D77AD68BE793E099D6CE0107960BDFE7
:1015E000CE0107965ED6CE0107960E94E7166CD60E
:1015F0002C960FB6F894DEBF0FBECDBFDF91CF9112
:10160000FF90EF90DF90CF900895489B13D0519AB0
:1016100025D01BCC81E0089551985098599858983E
:1016200088279927499B0895489B089581E008954C
:1016300081E00895B0E0A4E1002409D032F40A94D6
:10164000E1F71197C9F7289408C0A89406C0A89498
:10165000489901C0289400000895089592E39A954E
:10166000F1F7089508954F925F926F927F928F9253
:101670009F92AF92BF92CF92DF92EF92FF920F9321
:101680001F93CF93DF93EC0188818F3609F45CC000
:1016900034F4843659F0893609F457C4C3C5833706
:1016A00009F4B2C0843709F4EDC4BCC5898184371C
:1016B00009F46FDF89818D3609F0B4C58FE893E0B6
:1016C00025D602D60E94C502C82F0E94E0028C17C0
:1016D00038F489E596E01AD6F7D58FE696E006C08D
:1016E0008EE896E013D6F0D585EA96E00FD6ECD5D5
:1016F00082E593E00BD6E8D587EB93E007D680919F
:101700002D0290E0EBD5E0D58CEC93E0FFD58091F5
:101710002C0290E0E3D5D8D581EE93E0F7D5809107
:101720002B0290E0DBD5D0D586EF93E0EFD580910A
:101730002A0290E0D3D5C8D58BE094E0E7D580911C
:10174000290290E0CBD55DC589818D3609F06AC547
:101750008AEA8093280287E992E0D8D5B5D583EC50
:1017600096E0D4D58091AE0E9091AF0EA091B00EC0
:10177000B091B10E85359105A105B10541F08A3AC8
:101780009105A105B10531F488ED96E005C08FEC17
:1017900096E002C080EE96E0B9D596D58FE992E04A
:1017A000B5D580912702853519F489E69BE0AED541
:1017B000809127028A3A19F485E79BE0A7D572D871
:1017C000C82F82D589EF96E0A1D5CA3A19F489E6E7
:1017D0009BE002C084E495E099D576D5C4DD6B0129
:1017E0007C0188E097E092D5C701B60145D66CD55B
:1017F00085E297E08BD58AE397E088D582E792E08F
:1018000085D586E497E0FCC48981833609F0FFC062
:1018100061E070E080E090E00E9437028FE497E0A2
:1018200075D552D56FEF70EA85E397D66CE070E01E
:1018300080E090E00E94370263E289E0DAD7092F66
:1018400010E00E5C1F4FA6E0000F111FAA95E1F7F4
:1018500010933610009335102CE0829FC0011124A4
:101860008C50944F909338108093371064E289E045
:10187000C0D7E92EF12CB6E0EE0CFF1CBA95E1F7CB
:10188000F0923A10E092391010923B1080933C1085
:1018900065E289E0AED7292F30E012E3129FC00144
:1018A000139F900D112490933E1080933D1066E29B
:1018B00089E09FD7292F3327235D3F4F46E0220F32
:1018C000331F4A95E1F73093421020934110992736
:1018D0008D9656E0880F991F5A95E1F79093441022
:1018E0008093431062E289E084D7292F30E0129F71
:1018F000C001139F900D11249093301080932F10EE
:1019000065E389E076D7909334108093331062E1D9
:1019100089E06FD790932E1080932D1064E189E0B9
:1019200068D7909332108093311061E070E080E0CE
:1019300090E00E9437028BE697E0E8D48091351062
:101940009091361052D5C0D486E797E0DFD48091CD
:1019500037109091381049D5B7D481E897E0D6D4A4
:101960008091391090913A1040D5AED482E997E039
:10197000CDD480913B1090913C1037D5A5D486EA08
:1019800097E0C4D480913D1090913E102ED59CD408
:1019900080EB97E0BBD480913F109091401025D50B
:1019A00093D48CEB97E0B2D4809141109091421087
:1019B0001CD58AD487EC97E0A9D4809143109091EC
:1019C000441013D581D482ED97E0A0D480912F10DC
:1019D000909130100AD578D482EE97E097D4809118
:1019E0003310909134105ED56FD48FEE97E08ED483
:1019F00080912D1090912E1055D566D48FEF97E0E1
:101A000085D4809131109091321068D45DD4898151
:101A1000873609F045C180E198E078D455D463E079
:101A20008BE0E7D690930410809303106CE08BE07A
:101A3000E0D6909306108093051069E08BE0D9D62C
:101A400090930810809307106AE08BE0D2D69093B1
:101A50000A10809309106FE08BE0CBD690931010A2
:101A600080930F1060E18BE0C4D6909312108093A6
:101A7000111065E08BE0BDD6909314108093131085
:101A800066E08BE0B6D6909316108093151061E156
:101A90008BE0AFD6909318108093171068E08BE01E
:101AA000A8D6BC01990F880B990B0E94712F2DECC1
:101AB0003CEC4CEC5DE30E94D02F23E333E948E893
:101AC00053E40E94E4306093191070931A108093CD
:101AD0001B1090931C106DE08BE08BD690931E1022
:101AE00080931D106EE08BE084D69093201080933D
:101AF0001F1066E18BE07DD6909322108093211019
:101B000067E18BE076D690932410809323106FE3E7
:101B10008BE06FD690932610809325106EE38BE0B8
:101B200068D690932810809327106DE38BE061D6E0
:101B300090932A10809329106CE38BE05AD69093EF
:101B40002C1080932B108AE298E0E0D38091031050
:101B500090910410A7D4B8D389E398E0D7D38091AB
:101B600005109091061041D4AFD386E199E0CED311
:101B7000809107109091081038D4A6D385E498E09E
:101B8000C5D38091091090910A102FD49DD380E580
:101B900098E0BCD381E698E0B9D396D38CE798E07F
:101BA000B5D380910F10909110101FD48DD380E980
:101BB00098E0ACD3809111109091121016D484D378
:101BC00085EA98E0A3D380911310909114100DD45E
:101BD0007BD382EB98E09AD38091151090911610E8
:101BE00004D472D380EC98E091D380911710909137
:101BF0001810FBD369D387E699E088D36091191058
:101C000070911A1080911B1090911C101FD45CD3FE
:101C10008EEC98E07BD380911D1090911E10E5D33F
:101C200053D380EE98E072D380911F1090912010D2
:101C3000DCD34AD382EF98E069D380912110909150
:101C4000221030D441D383E099E060D380912310F7
:101C500090912410CAD338D381E199E057D3809171
:101C6000251090912610C1D32FD381E299E04ED355
:101C70008091271090912810B8D326D381E399E062
:101C800045D38091291090912A10AFD31DD381E4C0
:101C900099E03CD380912B1090912C10A6D314D3B3
:101CA0008981843709F0AEC08A81813609F051C03C
:101CB0000E94042164EF71E080E090E00E9437020E
:101CC0008EE494E023D300D3F12C8091F90DF81623
:101CD00008F098C0A8950F2D10E0C801F3E0880F18
:101CE000991FFA95E1F78A5C914FC6D4813834EE9A
:101CF00093076CF0BC01990F880B990B0E94712F10
:101D000020E030E040E05CE30E94D02F04C060E0BF
:101D100070E08EEF92EC000F111F000F111F0650A4
:101D2000124FF801608371838283938381E599E088
:101D3000EDD28F2D0E94FB02C7D280E699E0E6D259
:101D4000F801608171818281938180D3BDD2F39447
:101D5000BCCF80E288838983CE0102960E94932EB5
:101D60007C01182F0E94042164EF71E080E090E074
:101D70000E9437028EE494E0C9D2A6D2A8951F3003
:101D800008F03CC087011127C80153E0880F991F54
:101D90005A95E1F78A5C914F6FD48138F4EE9F0732
:101DA0006CF0BC01990F880B990B0E94712F20E0F9
:101DB00030E040E05CE30E94D02F04C060E070E0BF
:101DC0008EEF92EC000F111F000F111F0650124FE3
:101DD000F801608371838283938381E599E096D2D1
:101DE0008E2D0E94FB0270D280E699E08FD2F8011E
:101DF000608171818281938129D303C086E799E054
:101E000085D262D28981803709F07CC087E792E071
:101E10007DD25AD28DE899E079D28EE10E9455198F
:101E2000019719F48CE59BE002C08BED92E06ED235
:101E30004BD285E999E06AD28FE10E94551901974A
:101E400019F48CE59BE002C08BED92E05FD23CD2AE
:101E50008BE999E05BD280E20E945519019719F451
:101E60008CE59BE002C08BED92E050D22DD283E74F
:101E70009DE04CD288E10E945519019719F48CE538
:101E80009BE002C08BED92E041D21ED282EA99E043
:101E90003DD28EE30E945519019719F48CE59BE021
:101EA00002C08BED92E032D20FD28BEA99E02ED2B3
:101EB00080E40E945519019719F48CE59BE002C05B
:101EC0008BED92E023D200D284EB99E01FD28FE316
:101ED0000E945519019719F48CE59BE002C08BED27
:101EE00092E014D2F1D18DEB99E010D284E40E94FB
:101EF0005519019719F48CE59BE002C08BED92E037
:101F000005D2E2D18981893609F08CC188EC99E04B
:101F1000FDD1DAD1C0E0D0E08E010E5C1D4FF8019A
:101F2000F08086ED99E0F2D18F2D90E0D7D1CCD121
:101F300085EE99E0EBD1F801828190E0CFD1C4D158
:101F40002396CF30D10541F76DC18981863769F479
:101F50000E94CC068C018CE293E0D8D1B5D188EFF9
:101F600099E0D4D1C80141D2AFD18981833709F03A
:101F700059C18CE293E0CAD1A7D189E09AE0C6D1D9
:101F80008091230290912402A0912502B091260213
:101F90008A3A9105A105B10571F190F4803A910555
:101FA000A105B10529F1853A9105A105B105D1F049
:101FB00085369105A105B10521F58FE29AE020C093
:101FC000803B9105A105B10581F08F3F9105A105E9
:101FD000B105A1F08D3A9105A105B10591F487E213
:101FE0009AE00EC08BED92E00BC086E19AE008C04B
:101FF0008EE19AE005C081E096E002C08DE39AE0B0
:1020000085D162D184E49AE081D10E94CC06EDD1E1
:102010005BD183E59AE07AD18091F70D9091F80D2C
:10202000E4D152D184E393E071D18091F50D909188
:10203000F60DDBD149D18DE69AE068D18091F40D9F
:1020400090E04CD141D185E89AE060D16091F00DEB
:102050007091F10D8091F20D9091F30D0DD234D16C
:102060008EEB95E053D18091EE0D9091EF0DBDD1A7
:102070002BD180EE95E04AD18091EC0D9091ED0D41
:10208000B4D1BFC08981813609F0CCC08BE99AE018
:102090003DD11AD189EA9AE039D116D188EB9AE07C
:1020A00035D160911F0270912002809121029091A0
:1020B000220238EE832E33E0932EA12CB12CA50101
:1020C00094010E94A930CA01B901D6D1FDD086EC95
:1020D0009AE01CD180911E0290E0A0E0B0E0409117
:1020E000E80D5091E90D6091EA0D7091EB0D4817E4
:1020F00059076A077B0731F5C090E40DD090E50DD4
:10210000E090E60DF090E70D4090E00D5090E10D6D
:102110006090E20D7090E30D0E946F02C40CD51C1C
:10212000E61CF71CA7019601261B370B480B590B21
:10213000CA01B901A50194010E94A930CA01B901DF
:102140009BD103C082EE9AE0E1D0BED08DEE9AE042
:10215000DDD0BAD088EF9AE0D9D060911A027091A0
:102160001B0280911C0290911D0228EE822E23E01A
:10217000922EA12CB12CA50194010E94A930CA0174
:10218000B9017AD1A1D082E09BE0C0D08091190240
:1021900090E0A0E0B0E04091E80D5091E90D609131
:1021A000EA0D7091EB0D481759076A077B0731F567
:1021B000C090E40DD090E50DE090E60DF090E70DB5
:1021C0004090E00D5090E10D6090E20D7090E30DB5
:1021D0000E946F02C40CD51CE61CF71CA7019601D7
:1021E000261B370B480B590BCA01B901A5019401F5
:1021F0000E94A930CA01B9013FD103C082EE9AE022
:1022000085D0DF91CF911F910F91FF90EF90DF90DC
:10221000CF90BF90AF909F908F907F906F905F9086
:102220004F9052C0DF91CF911F910F91FF90EF908F
:10223000DF90CF90BF90AF909F908F907F906F90E6
:102240005F904F900895E2E3F2E020E030E090816B
:1022500098130CC0F901EE0FFF1F2E0F3F1FF9015D
:10226000EE5CFD4F80913102828308952F5F3F4FD6
:1022700033962530310559F70895CF93DF9360E009
:1022800086E20E947D19C0E6D0E0CE010197F1F709
:1022900061E086E20E947D192197F1F7DF91CF91ED
:1022A0000895CF93DF93EC014C815D816881798142
:1022B0008FE49FE00BD34C815D816881798182EB53
:1022C0009EE0DF91CF9102C36AE17BE08FE49FE063
:1022D0000ED66AE17BE082EB9EE009C6CF92DF92E8
:1022E000EF92FF926C01990FEE08FF0820E1B70111
:1022F000A6018FE49FE010D620E1B701A60182EB92
:102300009EE0FF90EF90DF90CF9006C6CF93DF93D3
:10231000EC01BC018FE49FE0EAD5BE0182EB9EE0B8
:10232000DF91CF91E4C5CF92DF92EF92FF920F93AE
:102330001F93CF93DF93EC016A017B0160E874E89F
:102340008EE190E0A70196010E94A93089019A01CF
:1023500001501109210931093695279517950795DF
:102360009801E889F98982E0808301151041A8F07D
:10237000E889F989108260E472E48FE090E0A701B7
:1023800096010E94A930DA01C9010197A109B1099A
:10239000B695A795979587959C01EC85FD8530832B
:1023A000EE85FF852083188EEC89FD8986E0808389
:1023B000EA89FB89808180618083EA89FB89808149
:1023C00088608083EA89FB89808180688083EA89CC
:1023D000FB8980818F7D8083DF91CF911F910F9149
:1023E000FF90EF90DF90CF900895CF92DF92EF9221
:1023F000FF926C01990FEE08FF08F7FE17C06DE21F
:102400008FE49FE06DD5F094E094D094C094C11C0B
:10241000D11CE11CF11C2AE0B701A6018FE49FE06A
:102420007BD56DE282EB9EE05BD506C02AE0B7016A
:10243000A6018FE49FE070D52AE0B701A60182EBE8
:102440009EE0FF90EF90DF90CF9066C5CF92DF9235
:10245000EF92FF926B017C0122E0AB01BC018FE4A3
:102460009FE0A2D522E0B701A60182EB9EE0FF909B
:10247000EF90DF90CF9098C5CF92DF92EF92FF92CE
:102480006B017C012AE0AB01BC018FE49FE044D5E5
:102490002AE0B701A60182EB9EE0FF90EF90DF906B
:1024A000CF903AC5CF92DF92EF92FF926C01E12C70
:1024B000F12C22E0B701A6018FE49FE02DD522E0A8
:1024C000B701A60182EB9EE0FF90EF90DF90CF90E6
:1024D00023C51F93CF93DF93C82FD0913002A895C7
:1024E00090912F0280913102981329C0C6DE20E01E
:1024F00030E0F901EE5CFD4F1181D28180818C13B7
:1025000019C0F89480EE0E946107882339F0812F6A
:102510000E94250781E09091300203C081E09091F4
:102520003102911101C080E080932E020E94570772
:10253000789405C02D5F3F4F2F303105D1F680E6EE
:1025400090E00197F1F78091310280932F02A895D6
:102550008D2FDF91CF911F9108951F93CF93DF931C
:10256000182FD62FC72F89E0B4DF9091300289133E
:1025700015C0F89482E10E946107882351F0812FF1
:102580000E9425078D2F0E9425078C2F0E9425076A
:1025900002C089E058DE0E9457077894DF91CF91FE
:1025A0001F910895CF93DF93813029E1920710F0B6
:1025B00080E099E162E370E00E94F631EB0160E0B7
:1025C0007C2F8FE3CADF82E3282F2C9FC0012D9F31
:1025D000900D1124DF91CF910895CF93DF93813C2B
:1025E0002FE1920710F080EC9FE1EC01C07CBE016E
:1025F00084E1B3DFCE01DF91CF9108951F93CF9394
:10260000DF93C82F162FD42F64DF909130028913E7
:1026100013C0F8948C2F880F0E946107882339F02B
:10262000812F0E9425078D2F0E94250702C08C2F25
:102630000ADE0E9457077894DF91CF911F91089589
:10264000CF93DF93C82FD62F44DF909130028913A8
:1026500010C0F8948C2F880F0E946107882321F006
:102660008D2F0E94250702C08C2FEDDD0E94570799
:102670007894DF91CF9108958F929F92AF92BF92FD
:10268000CF92DF92EF92FF920F931F93CF93DF933E
:10269000CDB7DEB729970FB6F894DEBF0FBECDBF1A
:1026A0007C018091F50F9091F60F0E942605811113
:1026B00003C080E894EE8AC0C090F50FD090F60F6A
:1026C00040E065E5C6010E9405058701570148E025
:1026D000A40EB11CD8016D918D0140E0C6010E948D
:1026E00005050A151B05B1F740E06EEB8091F50F6B
:1026F0009091F60F0E9405058E010F5F1F4F480154
:10270000B02EF9E0AF2EA00EC090F50FD090F60FCE
:10271000C6010E94B70466E9F601808191DFC60117
:102720000E94B70441EE61EED6018C9167DFC601CD
:102730000E94B204F40181934F01AE12E5CF809163
:10274000F50F9091F60F0E942605813009F0B1CF68
:10275000E0E088E08B0D801749F0D8019D918D0154
:10276000E927F0E0E357FE4FE491F5CF8985E813C0
:10277000A0CF2981B8E02B9FB00111249A81292F85
:1027800030E0322F2227330F330F330F262B372B16
:10279000F70180818031C9F4688570E08F81AB01D9
:1027A000481B5109CA019695982F882797958795B8
:1027B0000E940A32CB014097207F53E0220F331F43
:1027C0005A95E1F7820F931F01C0C90129960FB6F0
:1027D000F894DEBF0FBECDBFDF91CF911F910F9157
:1027E000FF90EF90DF90CF90BF90AF909F908F9031
:1027F00008950F931F93CF93DF931F92CDB7DEB74A
:10280000182F062F66DE90913002891326C0F894A7
:10281000812F880F0E946107882381F0802F0E94FA
:102820002507812F880F81600E942F0980E00E9478
:10283000F706182F81E00E94F70604C0812F03DD00
:1028400080E010E089830E9457077894212F30E0C0
:102850008981A901582BCA0102C080E090E00F9045
:10286000DF91CF911F910F9108950F931F93CF93F5
:10287000DF931F92CDB7DEB7182F062F2ADE909177
:10288000300289131CC0F894812F880F0E946107C1
:10289000882361F0802F0E942507812F880F816097
:1028A0000E942F0981E00E94F70603C0812FCBDC34
:1028B00080E089830E9457077894898101C080E075
:1028C0000F90DF91CF911F910F910895CF92DF92DA
:1028D000EF92FF920F931F93CF93DF936C017A01D6
:1028E0008B01C0E0D0E0CE15DF0589F0D8016D91F5
:1028F0008D01D601ED91FC910190F081E02DC60192
:102900001995892B11F47E0102C02196ECCFC701E5
:10291000DF91CF911F910F91FF90EF90DF90CF90BB
:102920000895FC01A089B1898C91A689B78982FD9F
:102930000FC09C91818D8F5F8F73228D821749F01C
:10294000218DDF01A20FB11D5D969C93818F0895AB
:102950008C910895089580E090E00895FC01538DD6
:10296000448D252F30E0842F90E0821B930B541769
:1029700010F0CF96089501970895FC01918D828DF6
:10298000981761F0828DDF01A80FB11D5D968C91C3
:10299000928D9F5F9F73928F90E008958FEF9FEFCE
:1029A0000895FC01918D828D981731F0828DE80F8A
:1029B000F11D858D90E008958FEF9FEF0895FC0144
:1029C000918D228D892F90E0805C9F4F821B910911
:1029D0008F739927089582EB9EE0F1DF21E0892B28
:1029E00009F420E0822F08958FE49FE0E8DF21E0E2
:1029F000892B09F420E0822F0895FC01848DDF01EA
:102A0000A80FB11DA35ABF4F2C91848D90E0019661
:102A10008F739927848FA689B7892C93A089B18950
:102A20008C9180648C93938D848D981306C002885A
:102A3000F389E02D80818F7D80830895EF92FF924E
:102A40000F931F93CF93DF93EC0181E0888F9B8DD1
:102A50008C8D981305C0E889F989808185FD23C094
:102A6000F62E0B8D10E00F5F1F4F0F731127E02E16
:102A70008C8DE8120BC00FB607FCFACFE889F989F4
:102A8000808185FFF5CFCE01B8DFF2CF8B8DFE01BF
:102A9000E80FF11DE35AFF4FF0820B8FEA89FB89A3
:102AA0008081806207C0EE89FF896083E889F989A7
:102AB00080818064808381E090E0DF91CF911F91DD
:102AC0000F91FF90EF900895CF93DF93EC01888DE5
:102AD0008823C1F0EA89FB89808185FD05C0A8892A
:102AE000B9898C9186FD0EC00FB607FCF5CF8081A9
:102AF00085FFF2CFA889B9898C9185FFEDCFCE01F2
:102B00007CDFE8CFDF91CF91089580E090E0892BC2
:102B100019F06ADF811120C080E090E0892B41F03C
:102B200080E090E0892B21F00E940000811117C005
:102B300080E090E0892B41F080E090E0892B21F04B
:102B40000E94000081110EC080E090E0892B79F096
:102B500042DF81110AC008950E940000DDCF0E946B
:102B60000000E6CF0E940000EFCF0C940000089513
:102B700090E0FC013197E231F10508F04EC0882762
:102B8000EE58FF4F8F4F0C941D32809180008F774D
:102B900003C0809180008F7D809380000895809194
:102BA0008000877FF9CF84B58F7702C084B58F7D91
:102BB00084BD08958091B0008F7703C08091B000EC
:102BC0008F7D8093B0000895809190008F7707C02B
:102BD000809190008F7D03C080919000877F8093CB
:102BE000900008958091A0008F7707C08091A00089
:102BF0008F7D03C08091A000877F8093A0000895FF
:102C0000809120018F7707C0809120018F7D03C0C4
:102C100080912001877F8093200108950E943C3499
:102C20000F931F93CF93DF93EC01888199810097D5
:102C300029F02A813B812617370788F48B016F5FC3
:102C40007F4F0E945833009761F0998388831B83DC
:102C50000A832C813D81232B11F4FC01108281E039
:102C600001C080E0DF91CF911F910F910895EF9205
:102C7000FF920F931F93CF93DF93FC012481358143
:102C80006115710511F480E018C041155105A1F0DE
:102C90007B01EC018A01020F131FB801C1DF8823F9
:102CA00091F3288139818C819D81B701820F931F17
:102CB0000E9449341D830C8381E0DF91CF911F91E5
:102CC0000F91FF90EF900895CF93DF93EC018881EF
:102CD0009981009711F00E94C032198218821D82DA
:102CE0001C821B821A82DF91CF910895CF93DF93CC
:102CF000EC01FB014481558160817181B8DF811154
:102D000002C0CE01E1DFCE01DF91CF910895FB013A
:102D10004481558160817181AACFEF92FF920F9318
:102D20001F93CF93DF93EC018B016115710549F07F
:102D3000CB010E94E52E7C01BC01CE0171DF811127
:102D400003C0CE01C1DF07C0FD82EC82B8018881DB
:102D500099810E94DE2ECE01DF91CF911F910F91BC
:102D6000FF90EF900895EF92FF920F931F93CF93F0
:102D7000DF93EC017B018A01BA0152DF811103C0AC
:102D8000CE01A2DF07C01D830C83B7018881998122
:102D90000E944934CE01DF91CF911F910F91FF9096
:102DA000EF900895CF93DF93EC016115710551F019
:102DB000FB0101900020E9F73197AF01461B570B4B
:102DC000D2DF01C081DFCE01DF91CF910895FC01F8
:102DD000808191810C94C0320F931F93CF93DF9326
:102DE000CDB7DEB729970FB6F894DEBF0FBECDBFC3
:102DF0008C01862FF80111821082138212821582B3
:102E0000148250E0BE016F5F7F4F90E00E94352F2B
:102E1000BE016F5F7F4FC801C5DF29960FB6F894DA
:102E2000DEBF0FBECDBFDF91CF911F910F910895EF
:102E3000FC011182108213821282158214826115A4
:102E4000710549F0FB0101900020E9F73197AF01CE
:102E5000461B570B88CF0895BF92CF92DF92EF9217
:102E6000FF920F931F93CF93DF937C016B018A0135
:102E7000E9012417350720F4812F8901C42FD82FA9
:102E80006CE17BE0C701D4DFD60114968D919C9153
:102E9000159708171907C8F48C179D0708F4EC015B
:102EA000D601ED91FC911197EC0FFD1FB0801082BF
:102EB0004D915C91BA01600F711FC70173DFD6019C
:102EC000ED91FC91EC0FFD1FB082C701DF91CF9116
:102ED0001F910F91FF90EF90DF90CF90BF900895DA
:102EE000DC01ED91FC910190F081E02D19946115C8
:102EF000710579F0FB0101900020E9F73197AF01EE
:102F0000461B570BDC01ED91FC910280F381E02D13
:102F1000199480E090E008954F925F926F927F92B3
:102F2000EF92FF920F931F93CF93DF93CDB7DEB74E
:102F3000A1970FB6F894DEBF0FBECDBF7C01FA019A
:102F4000CB0119A2223008F42AE08E010F5D1F4F39
:102F5000422E512C612C712CBF01A30192010E94C1
:102F6000A930F901CA01015011096A3014F4605DF9
:102F700001C0695CD8016C93232B242B252B61F7AE
:102F8000B801C701B4DFA1960FB6F894DEBF0FBE3B
:102F9000CDBFDF91CF911F910F91FF90EF907F9068
:102FA0006F905F904F9008954F925F926F927F92D3
:102FB0008F929F92AF92BF92CF92DF92EF92FF9249
:102FC000CF93DF93EC016A017B01B22E9A01AB0132
:102FD000C701B6010E94E631882319F06DE17BE05C
:102FE00027C026013701E89477F82FEF3FEF4FE72E
:102FF0005FE7C301B2010E94E63181110DC02FEFDE
:103000003FEF4FE75FE7C301B2010E946B2F181635
:103010001CF461E27BE00CC02FEF3FEF4FE75FE471
:10302000C701B6010E94E231181694F465E27BE014
:10303000CE01DF91CF91FF90EF90DF90CF90BF90C6
:10304000AF909F908F907F906F905F904F904FCFF9
:103050002FEF3FEF4FE75FECC701B6010E946B2FE8
:1030600087FDE4CF20E030E0A901C701B6010E944E
:103070006B2F87FF09C06DE2CE0132DF4C01F7FAFA
:10308000F094F7F8F09402C0812C912CA12C60E010
:1030900070E080E09FE3AB1441F020E030E040E2DC
:1030A00051E40E944931A394F6CF9B01AC01C701C2
:1030B000B6010E94E5302B013C010E94B6316B0144
:1030C0007C010E946F2F9B01AC01C301B2010E94E1
:1030D000E4302B013C012AE0B701A601CE011CDF40
:1030E0007C01E80CF91CBB2029F06EE2CE01F8DE71
:1030F000E80EF91EDB2CDD2021F120E030E040E27B
:1031000051E4C301B2010E94D02F2B013C010E9467
:10311000B6314B01A12CB12C2AE0B501A401CE019E
:10312000FBDEE80EF91EC501B4010E946F2F9B0162
:10313000AC01C301B2010E94E4302B013C01DA94DE
:10314000DACFC701DF91CF91FF90EF90DF90CF9062
:10315000BF90AF909F908F907F906F905F904F90B7
:1031600008951F920F920FB60F9211240BB60F9273
:103170002F933F934F935F936F937F938F939F937F
:10318000AF93BF93EF93FF9382EB9EE036DCFF910A
:10319000EF91BF91AF919F918F917F916F915F91CF
:1031A0004F913F912F910F900BBE0F900FBE0F903C
:1031B0001F9018951F920F920FB60F9211240BB605
:1031C0000F922F933F934F935F936F937F938F93C0
:1031D0009F93AF93BF93EF93FF9382EB9EE0A1DBAE
:1031E000FF91EF91BF91AF919F918F917F916F91DF
:1031F0005F914F913F912F910F900BBE0F900FBE9B
:103200000F901F9018951F920F920FB60F921124D6
:103210000BB60F922F933F934F935F936F937F93D0
:103220008F939F93AF93BF93EF93FF938FE49FE0B0
:10323000E4DBFF91EF91BF91AF919F918F917F91CF
:103240006F915F914F913F912F910F900BBE0F9017
:103250000FBE0F901F9018951F920F920FB60F92EE
:1032600011240BB60F922F933F934F935F936F935D
:103270007F938F939F93AF93BF93EF93FF938FE4CD
:103280009FE04FDBFF91EF91BF91AF919F918F91A5
:103290007F916F915F914F913F912F910F900BBE56
:1032A0000F900FBE0F901F901895CF93DF93282F8C
:1032B00030E0F901E959FC4F8491F901EF5DFC4FD1
:1032C000D491F901E552FD4FC491CC2389F08111CD
:1032D0004FDCEC2FF0E0EE0FFF1FEF53FD4FA591F9
:1032E000B491EC91ED2381E090E021F480E002C004
:1032F00080E090E0DF91CF9108951F93CF93DF930B
:10330000282F30E0F901E959FC4F8491F901EF5D74
:10331000FC4FD491F901E552FD4FC491CC23C1F08B
:10332000162F811125DCEC2FF0E0EE0FFF1FE95581
:10333000FD4FA591B4918FB7F894111105C09C91E0
:10334000ED2FE095E92302C0EC91ED2BEC938FBFBC
:10335000DF91CF911F910895CF93DF9390E0FC010F
:10336000EF5DFC4F2491FC01E552FD4F84918823D1
:1033700061F190E0880F991FFC01E357FD4FC59163
:10338000D491FC01E955FD4FA591B491611109C09B
:103390009FB7F8948881209582238883EC912E230F
:1033A0000BC0623061F49FB7F8943881822F80950A
:1033B00083238883EC912E2B2C939FBF06C08FB75D
:1033C000F894E8812E2B28838FBFDF91CF91089549
:1033D0001F93CF93DF93182FEB0161E0BDDF2097A0
:1033E00011F460E004C0CF3FD10531F461E0812FDA
:1033F000DF91CF911F9181CFE12FF0E0E959FC4F90
:10340000E4914E2F50E0FA013197E231F10508F0D6
:103410009DC08827EC57FF4F8F4F0C941D3284B509
:10342000806884BDC7BD97C084B5806284BDC8BDB7
:1034300092C080918000806880938000D093890042
:10344000C093880088C08091800080628093800053
:10345000D0938B00C0938A007EC0809180008860EA
:1034600080938000D0938D00C0938C0074C08091B5
:10347000B00080688093B000C093B3006CC08091AE
:10348000B00080628093B000C093B40064C08091AB
:103490009000806880939000D0939900C09398002A
:1034A0005AC080919000806280939000D0939B00DE
:1034B000C0939A0050C080919000886080939000E3
:1034C000D0939D00C0939C0046C08091A00080686E
:1034D0008093A0008091A0008F7B8093A000D09368
:1034E000A900C093A80037C08091A000806280939B
:1034F000A000D093AB00C093AA002DC08091A00083
:1035000088608093A000D093AD00C093AC0023C02E
:1035100080912001806880932001D0932901C0937D
:10352000280119C080912001806280932001D093EE
:103530002B01C0932A010FC08091200188608093E5
:103540002001D0932D01C0932C0105C0C038D105B6
:103550000CF04CCF46CFDF91CF911F910895462FAD
:10356000682F8AE54BC86AE18AE57FD9682F6F77B3
:103570008AE1F5CF60E08AE578D960E081E0EFDFAD
:1035800060E082E0ECDF60E08DE0E9DF60E08EE0AB
:10359000E6DF60E08FE0E3DF60E080E1E0DF64E64B
:1035A00083E1DDDF6AE18AE560D9682F6F778AE120
:1035B000D6DF6DE18AE559D9682F60628DE1CFDFF2
:1035C00081E00895BF92CF92DF92EF92FF920F9326
:1035D0001F93CF93DF93CDB7DEB766970FB6F894FE
:1035E000DEBF0FBECDBFDC01EC914E2FEE0F550BB1
:1035F000660B770BFA01E456F109E331F10508F0A7
:1036000055C28C018827EA56FF4F8F4F0C941D320C
:10361000FD0181818636D9F480E280838183CD01EA
:1036200002960E94932E7C0189E29BE00E94861103
:103630000E94641184E39BE00E948611C7010E94EE
:10364000F5110E946411B70180914810C1DED801C4
:1036500011968C911197823609F028C280E28C93E2
:1036600011968C93C80102960E94932E8C0189E2D8
:103670009BE00E9486110E94641181E49BE00E94FD
:103680008611C8010E94F5110E946411B801809151
:1036900046109EDE0BC2FD0181818E3619F5BD01FB
:1036A0006E5F7F4FCE014196C3DB1A8219821C8266
:1036B0001B821E821D8269897A896115710529F034
:1036C0004D895E89CE0101964EDB60E0CE01019608
:1036D0000E94E807CE0101967ADB0E94C90ACE015A
:1036E000419675DBD80111968C91823709F0DEC1C5
:1036F000B8016E5F7F4FCE0141969ADB1A82198224
:103700001C821B821E821D8269897A89611571055E
:1037100029F04D895E89CE01019625DB61E0CE015D
:1037200001960E94E807CE01019651DB0E94C90A6A
:10373000CE0141964CDBBAC1FD018181883779F415
:103740008281813339F461E08EE3D7DD81E08093BB
:10375000581005C060E08EE3D0DD10925810D801FB
:1037600011968C911197813681F412968C91813348
:1037700039F461E080E4C1DD81E08093571005C039
:1037800060E080E4BADD10925710F8018181823642
:1037900009F08CC18281813339F461E08FE3ADDDC2
:1037A00081E08093561082C160E08FE3A6DD109225
:1037B00056107CC111968C911197833709F076C110
:1037C00012968C918133E1F487E792E00E94861192
:1037D0000E9464118DE49BE00E9486110E94641196
:1037E0008AEA8093440260E081E187DD61E08EE156
:1037F00084DD61E08FE181DD61E081E27EDD56C143
:103800000E946B0453C1FD018181843609F04EC1D1
:103810008281813379F487E992E00E9486110E94C7
:1038200064118FE59BE00E9486110E94641185E57A
:1038300080932702D80112968C91823309F036C109
:1038400087E992E00E9486110E9464118BE69BE05A
:103850000E9486110E9464118AEA8093270226C181
:10386000FD018181833709F021C10E5F1F4F0E9446
:10387000630461E070E080E090E00E94370260E065
:103880008AE50E94351480FF04C091E090935B109C
:1038900002C010925B1081FF04C081E080935A1037
:1038A00002C010925A108AEA809343028093591002
:1038B00060E08AE50E943514C82E85E396E00E94F8
:1038C00086110E94641187E79BE00E948611D12C2B
:1038D000E12CF12C22E0B701A6018FE49FE01CDB74
:1038E00022E0B701A60182EB9EE016DB0E94641184
:1038F0008DE89BE00E94861180915B1090E00E9411
:10390000F5110E9464118BEA9BE00E948611809160
:103910005A1090E00E94F5110E94641186EC9BE021
:103920000E9486118091591090E00E94F5110E942A
:1039300064110E94641161E070E080E090E00E94F8
:10394000370280914302853531F481EE9BE00E947D
:1039500086110E9464110EDE61E070E080E090E06C
:103960000E94370260E081E0FADDFDDD62E083E085
:10397000F6DD68E584E0F3DD60E185E0F0DD60E13F
:1039800086E0EDDD60E187E0EADD68E588E0E7DD1F
:1039900060E189E0E4DD60E18AE0E1DD60E18BE0A7
:1039A000DEDDCE0101967C0180E1D7011D928A9572
:1039B000E9F767EF7BE0C8010E94EE2E8701C12C7A
:1039C000D12CFF24F3940097F1F040E150E060E047
:1039D00070E00E946B2DB8E0CB16D1043CF4653743
:1039E000710520F4F8017183608301C0F12C67EF49
:1039F0007BE080E090E00E94EE2EFFEFCF1ADF0A1E
:103A00000E5F1F4FE0CFFF2009F450C085E396E022
:103A10000E9486110E94641189EF9BE00E9486112A
:103A20000E9464111F850D85FB84E984DF80CD80B1
:103A3000BB80698184E093DD6B2D85E090DD6C2D8A
:103A400086E08DDD6D2D87E08ADD6E2D88E087DDD7
:103A50006F2D89E084DD602F8AE081DD612F8BE0AE
:103A60007EDD24C011968C91843701F5C801029641
:103A70000E94932E8C018CE293E00E9486110E949A
:103A800064110F31110560F484E09CE00E948611FE
:103A9000C8010E94F511109342020093410204C034
:103AA00086E19CE00E9486110E94641166960FB622
:103AB000F894DEBF0FBECDBFDF91CF911F910F9164
:103AC000FF90EF90DF90CF90BF9008950F931F93DA
:103AD000CF93DF93EC018881823709F453C23CF421
:103AE000843609F46EC2893609F482C1B6C28437BD
:103AF00009F4A8C0863709F0B0C28981873651F52C
:103B00000E94630461E08CE02ADD0E946F026093F2
:103B100068107093691080936A1090936B1080EC1A
:103B200094EDA1E0B0E08093641090936510A093B1
:103B30006610B09367108AEA80934C0285E396E0A2
:103B40000E9486110E94641180E49CE00E9486110C
:103B50000E9464118981833791F485E580934C023A
:103B600060E08CE0FCDC85E396E00E9486110E9418
:103B700064118CE396E00E9486110E946411898191
:103B8000843709F06AC285E396E00E9486110E949C
:103B900064118AE49CE00E9486110E9464110E94D4
:103BA000630464EF71E080E090E00E94370261E01E
:103BB00070E080E090E00E943702DCDC64E670E0B8
:103BC00080E090E00E94370261E070E080E090E0E9
:103BD0000E94370260E081E0C2DCC5DC62E083E085
:103BE000BEDC68E584E0BBDC60E185E0B8DC60E178
:103BF00086E0B5DC60E187E0B2DC68E588E0AFDC58
:103C000060E189E0ACDC60E18AE0A9DC60E18BE0A6
:103C1000A6DC83E59CE00E9486110E94641168EE98
:103C200073E080E090E00E94370261E070E080E0A5
:103C300090E00E94370261E08CE0DF91CF911F910C
:103C40000F918DCC89818B3609F061C080E2888329
:103C50008983CE0102960E94932E8C0118161906B4
:103C60000CF055C08FE893E00E9486110E94641109
:103C70008BE59CE00E948611C8010E94F5110E940C
:103C8000641128EE33E0D8010E94253260931F02B0
:103C900070932002809321029093220280914B0224
:103CA00090E0A0E0B0E04091601050916110609110
:103CB000621070916310481759076A077B0739F53E
:103CC0000E946F026093E00D7093E10D8093E20D0E
:103CD0009093E30D80911F0290912002A091210208
:103CE000B09122028093E40D9093E50DA093E60D30
:103CF000B093E70D80911E0290E0A0E0B0E08093C9
:103D0000E80D9093E90DA093EA0DB093EB0D898136
:103D1000873709F0A2C180E288838983CE010296A9
:103D20000E94932EEC01181619060CF096C18FE82C
:103D300093E00E9486110E9464118FE69CE00E942D
:103D40008611CE010E94F5110E94641128EE33E025
:103D5000DE010E94253260931A0270931B02809349
:103D60001C0290931D02409160105091611060916F
:103D700062107091631080914A0290E0A0E0B0E080
:103D8000481759076A077B0759F08091490290E06C
:103D9000A0E0B0E0481759076A077B0709F05DC14A
:103DA0000E946F026093E00D7093E10D8093E20D2D
:103DB0009093E30D80911A0290911B02A0911C0236
:103DC000B0911D028093E40D9093E50DA093E60D54
:103DD000B093E70D8091190290E0A0E0B0E08093ED
:103DE000E80D9093E90DA093EA0DB093EB0D35C16A
:103DF00089818637A9F480E288838983CE0102967F
:103E00000E94932E40EA50E060E070E040935C1026
:103E100050935D1060935E1070935F100E94B30624
:103E200089818136B9F50E946B0460E080E265DA31
:103E300060E081E162DA60E080E15FDA8CE293E0E9
:103E40000E9486110E94641182E89CE00E94861103
:103E50000E9464111092F60D1092F50D1092F80D5B
:103E60001092F70D8AEA90E0A0E0B0E0809345025E
:103E700090934602A0934702B09348028CE293E0ED
:103E80000E9486110E9464118FE89CE00E948611B6
:103E90000E9464118981893651F580E28883898383
:103EA000CE0102960E94932E8C018CE293E00E9438
:103EB00086110E94641183E59AE00E948611C80170
:103EC0000E94F5110E9464111093F80D0093F70DF4
:103ED00085E690E0A0E0B0E080935C1090935D10E8
:103EE000A0935E10B0935F10C8010E94B306898151
:103EF000843709F0B2C08CE293E00E9486110E94E0
:103F000064118DE99CE00E9486110E9464110E9458
:103F1000CC064E971CF561E080E2EFD961E081E1CB
:103F2000ECD968EE73E080E090E00E94370261E037
:103F300080E1E3D961E070E080E090E00E94370228
:103F400060E080E1DAD960E081E1D7D960E080E229
:103F5000D4D98EEB9CE00E9486110EC08CEC9CE0C4
:103F60000E9486110E94641184E49AE00E948611E6
:103F70000E94CC060E94F511DF91CF911F910F9105
:103F80000C9464118981843309F067C08A8182337B
:103F900009F063C08FE893E00E9486110E946411CB
:103FA00081EF9CE00E9486110E94641186E09DE0F2
:103FB0000E94861168EE73E080E090E00E94370274
:103FC000F5CF89818D3619F58A81813301F580E23B
:103FD000888389838FE893E00E9486110E94641190
:103FE00088E09DE00E9486110E9464118BE19DE0B3
:103FF0000E9486110E94641185E580932D028093B2
:104000002C0280932B0280932A02809329028981BB
:104010008D3619F58A81803301F580E288838983A2
:104020008FE893E00E9486110E94641188E39DE06E
:104030000E9486110E9464118CE49DE00E9486110A
:104040000E9464118AEA80932D0280932C0280934F
:104050002B0280932A0280932902DF91CF911F9136
:104060000F910895CF93DF931092AF10CCE1DBE076
:104070008FE49FE00E94DF14892B09F457C08FE47E
:104080009FE00E94BD149091AF109F5F9093AF107E
:10409000913071F7E091AE10813244F09E0F909311
:1040A000AE10F0E0E257FF4E808314C0883031F448
:1040B000EE2391F0E150E093AE100EC08D3051F43C
:1040C0008091AE10E82FF0E0E257FF4E108283306F
:1040D00050F107C08A30A1F38091AE10813280F791
:1040E00022C087E69DE00E9486118EE890E10E9442
:1040F00086110E94641180918E10823761F087379B
:1041000031F0853661F48FE890E1E0DC08C08FE89B
:1041100090E158DA04C08FE890E10E94330BC0931D
:104120008E101092AE101092AF10A2CF1092AF105E
:10413000DF91CF910895CF93DF9310928D10CCE152
:10414000DBE082EB9EE00E94DF14892B09F457C06C
:1041500082EB9EE00E94BD1490918D109F5F909322
:104160008D10913071F7E0918C10813244F09E0FE8
:1041700090938C10F0E0E459FF4E808314C0883097
:1041800031F4EE2391F0E150E0938C100EC08D30AD
:1041900051F480918C10E82FF0E0E459FF4E10822A
:1041A000833050F107C08A30A1F380918C108132A6
:1041B00080F722C080E79DE00E9486118CE690E1A6
:1041C0000E9486110E94641180916C10823761F008
:1041D000873731F0853661F48DE690E177DC08C0F1
:1041E0008DE690E1EFD904C08DE690E10E94330B9B
:1041F000C0936C1010928C1010928D10A2CF109260
:104200008D10DF91CF9108958F929F92AF92BF92C0
:10421000CF92DF92EF92FF92CF93DF938091F50FD1
:104220009091F60F0E94260540E06CEC8091F50F0E
:104230009091F60F0E9405054091EF0F64E4809184
:10424000F50F9091F60F0E9405058091F10F8823DC
:1042500009F44EC0E091F00FE950E33040F4F0E093
:10426000EE0FFF1FEB59FD4FC081D18102C0CEEE92
:10427000D2E08091F20F8823F1F08091EF0F81114D
:104280001AC00E946F024B015C016E01DD0FEE0847
:10429000FF08C091F50FD091F60FCE010E94B70430
:1042A00040E867E888810E94FE12CE010E94B704B0
:1042B00085FF11C01DC0BE01DD0F880B990BDF917A
:1042C000CF91FF90EF90DF90CF90BF90AF909F90F5
:1042D0008F900C9437020E946F02DC01CB018C1985
:1042E0009D09AE09BF0988159905AA05BB0588F285
:1042F000DF91CF91FF90EF90DF90CF90BF90AF9084
:104300009F908F900895CF93DF93CDB7DEB76297DC
:104310000FB6F894DEBF0FBECDBF789484B582602F
:1043200084BD84B5816084BD85B5826085BD85B559
:10433000816085BD80916E00816080936E001092D7
:104340008100809181008260809381008091810052
:1043500081608093810080918000816080938000E3
:104360008091B10084608093B1008091B000816041
:104370008093B00080919100826080939100809141
:104380009100816080939100809190008160809382
:1043900090008091A10082608093A1008091A10093
:1043A00081608093A1008091A00081608093A00033
:1043B000809121018260809321018091210181609F
:1043C0008093210180912001816080932001809160
:1043D0007A00846080937A0080917A008260809372
:1043E0007A0080917A008E7F80937A0080917A00A3
:1043F000806880937A001092C10040E05BE460E046
:1044000070E08FE49FE00E94931140E05BE460E085
:1044100070E082EB9EE00E949311F894A895809141
:10442000600088618093600089E2809360007894E6
:1044300085EA8093180283EB809316028AE58093C5
:10444000150291EF9093140290E5909349028093A6
:104450004A0280EA8093190281EA80930F0282EA7D
:1044600080934B0283EA80931E0284EA80930E02BB
:1044700080EB682E712C812C912C212C312C210168
:104480002A948091D80D811107C0809118028093E1
:10449000D70D81E08093D80D909117028091D70DB0
:1044A000981701F18FE893E00E9486110E94641131
:1044B00087E993E00E9486118091170290E00E94A4
:1044C0006E1184EA93E00E9486118091D70D90E0EE
:1044D0000E946E110E9464118091D70D8093D60DB9
:1044E000809317029091D60D80911802981389C27B
:1044F00085E5809330029AEA9093310280933402EA
:104500008093370280933A0280933D028093400269
:1045100061E086E20E94AC190E943D110E940C0BE2
:104520001A8219821C821B821E821D82882319F026
:104530006EE571E002C069E771E0CE0101960E946C
:104540008D16CE0101960E945111CE0101960E9456
:10455000E7160E94641161E08EE10E94AC1960E0F0
:104560008EE10E947D1961E080E20E94AC1960E05A
:1045700080E20E947D1961E088E10E94AC1960E050
:1045800088E10E947D1961E084E40E94AC1960E03A
:1045900084E40E947D1961E08EE30E94AC1960E022
:1045A0008EE30E947D1961E080E40E94AC1960E016
:1045B00080E40E947D1961E08FE30E94AC1960E005
:1045C0008FE30E947D1961E088E10E94AC1960E0F0
:1045D00088E10E947D1961E08FE10E94AC1960E0E2
:1045E0008FE10E947D1961E081E20E94AC1960E0D8
:1045F00081E20E947D1960E082E00E94AC196FEFB9
:1046000070EA85E30E94AD1281E090E00E94B1065D
:10461000B82E82E090E00E94B106C82E83E090E0C0
:104620000E94B106D82E84E090E00E94B106E82EE8
:1046300085E090E00E94B106F82E87E792E00E94A4
:1046400086110E94641187EA93E00E9486118B2DE7
:1046500090E00E94F5110E9464118CEB93E00E949F
:1046600086118C2D90E00E94F5110E94641181ED5D
:1046700093E00E9486118D2D90E00E94F5110E941A
:10468000641186EE93E00E9486118E2D90E00E94C8
:10469000F5110E9464118BEF93E00E9486118F2D1B
:1046A00090E00E94F5110E94641101E02AEAB21222
:1046B00000E03AEAC31201C00F5F4AEAD41201C017
:1046C0000F5F5AEAE51201C00F5F8AEAF81201C0D3
:1046D0000F5F11E095E5B91210E0A5E5CA1201C01F
:1046E0001F5FB5E5DB1201C01F5FE5E5EE1201C0FB
:1046F0001F5FF5E5FF1201C01F5F0E945B040117F9
:1047000078F48AEA80939C0D87E792E00E948611F4
:104710000E94641180E194E00E9486110E9464115D
:10472000101788F485E580939C0D0E945B0487E751
:1047300092E00E9486110E94641184E294E00E943B
:1047400086110E9464116AEA81E090E00E944005AF
:104750006AEA82E090E00E9440056AEA83E090E025
:104760000E9440056AEA84E090E00E9440056AEAFF
:1047700085E090E00E9440056AE070E080E090E013
:104780000E94370284E494E00E9486110E946F0226
:104790009B01AC01CE010196298B3A8B4F87588B38
:1047A0000E943C09CE0101960E94ED036B017C0141
:1047B000A8EEB3E029893A894F8558890E94CB3009
:1047C000C61AD70AE80AF90AC092A80DD092A90D14
:1047D000E092AA0DF092AB0D10929E0D28EE33E000
:1047E00040E050E020939F0D3093A00D4093A10D29
:1047F0005093A20D88E893E1A0E0B0E08093A30D70
:104800009093A40DA093A50DB093A60D81E5809380
:10481000A70D61E085E00E94AC1961E08EE30E9483
:10482000AC1961E080E40E94AC1961E08FE30E9462
:10483000AC1961E085E00E94AC1961E084E40E945B
:10484000AC1960E08EE30E947D191092581060E070
:1048500080E40E947D191092571060E08FE30E945F
:104860007D191092561080915710811106C060E09A
:1048700084E40E947D191092AC0D61E081E40E94F5
:10488000AC1961E083E40E94AC1960E082E40E940C
:10489000AC1960E082E40E947D1980919C0D8A3AF7
:1048A00009F09FC061E081E10E94AC1960E081E104
:1048B0000E947D1961E080E10E94AC1960E080E116
:1048C0000E947D1961E08AE10E94AC1960E08AE1F2
:1048D0000E947D1961E089E10E94AC1960E089E1E4
:1048E0000E947D1925E530E040E050E02093AD0DB9
:1048F0003093AE0D4093AF0D5093B00D1092AE0EAD
:104900001092AF0E1092B00E1092B10E8091210154
:10491000887F81608093210160E070E08091481081
:104920000E94E81960E070E0809146100E94E8194A
:104930008EE494E00E9486110E9464118BE594E05D
:104940000E9486110E9464118AE090E00E94B106E4
:10495000853108F084E18093F90D4AEF5DE05E87D0
:104960004D870BE010E0E12CF12C8091F90D90E0E7
:10497000E816F9065CF5AD85BE851D921D921D9267
:104980001D92BE87AD87F801E55DF14F6F0198017B
:104990002D5C314F5801C501298B3A8B0E94B1061D
:1049A000D6018D936D01BFEFAB1ABB0A29893A89F5
:1049B000C216D30681F78E2D0E94FB020E9464115D
:1049C000EFEFEE1AFE0A085F1F4FCFCF8AE694E0A2
:1049D0000E9486110E9464110E948E04809116022A
:1049E00002C0809114028093D70D8FE893E00E945B
:1049F00086110E94641186E694E00E9486110E944E
:104A000064119091D60D80911602981348C08FE8DA
:104A100093E00E9486110E94641184E794E00E9452
:104A200086110E94641182E593E00E9486110E9423
:104A30006411CE0107960E943C09CE0107960E94A0
:104A4000ED036B017C0181E693E00E948611C701B2
:104A5000B6010E943C120E9464118BE793E00E9411
:104A60008611CE0101960E94FB09CE0101960E949B
:104A70005111CE0101960E94E7160E9464118091A7
:104A800015028093D70D8FE893E00E9486110E9453
:104A9000641187E894E00E9486110E94641190914D
:104AA000D60D809115029813E3C60E945C0543DB86
:104AB000D9DA0E946F020091E40D1091E50D20916A
:104AC000E60D3091E70DC090E00DD090E10DE09043
:104AD000E20DF090E30DDC01CB018C199D09AE09CC
:104AE000BF09081719072A073B0728F4012B022BD7
:104AF000032B09F0CEC64091D20D5091D30D609199
:104B0000D40D7091D50D8091100290911102A09159
:104B10001202B0911302481759076A077B0709F47C
:104B20003EC289E994E00E9486110E9464118CEAD9
:104B300094E00E9486118091D20D9091D30D0E9435
:104B40006E1184EA93E00E94861180911002909188
:104B500011020E946E110E94641140911002509146
:104B600011026091120270911302409360105093F1
:104B7000611060936210709363104093D20D509354
:104B8000D30D6093D40D7093D50D8091490290E0C0
:104B9000A0E0B0E0481759076A077B07D9F50E94E3
:104BA0008E040E946F026093E00D7093E10D80937C
:104BB000E20D9093E30D20EC37E249E050E02093C2
:104BC000E40D3093E50D4093E60D5093E70D809191
:104BD000190290E0A0E0B0E08093E80D9093E90D19
:104BE000A093EA0DB093EB0D89E994E00E94861141
:104BF0000E94641181EC94E00E9486116091E40DA2
:104C00007091E50D8091E60D9091E70D0E943C12A8
:104C10000E94641180914A0290E0A0E0B0E04091CF
:104C2000601050916110609162107091631048178C
:104C300059076A077B0749F50E948E040E946F029C
:104C40006093E00D7093E10D8093E20D9093E30D7E
:104C500080911A0290911B02A0911C02B0911D023A
:104C60008093E40D9093E50DA093E60DB093E70DCE
:104C70008091190290E0A0E0B0E08093E80D90935D
:104C8000E90DA093EA0DB093EB0D8091190290E02D
:104C9000A0E0B0E04091601050916110609162100E
:104CA00070916310481759076A077B0709F061C0C4
:104CB00089E994E00E9486110E9464110E945204C6
:104CC000853541F485ED94E00E9486110E946411BF
:104CD00015E501C01AEA8AEA809309020E94B30925
:104CE000693077408105910510F00AEA01C005E5B9
:104CF0000E94E002F82E0E94C502F816A8F00535C1
:104D000099F480E69AEEA0E0B0E080931A029093C6
:104D10001B02A0931C02B0931D0289EE94E00E9436
:104D200086110E94641112C01A3A81F480910F0218
:104D300090E0A0E0B0E08093100290931102A09365
:104D40001202B09313028AE095E00FC080914A02EC
:104D500090E0A0E0B0E08093100290931102A09345
:104D60001202B093130288E295E00E9486110E941D
:104D7000641180910F0290E0A0E0B0E040916010DB
:104D8000509161106091621070916310481759073B
:104D90006A077B0709F06DC08091AD0D9091AE0D53
:104DA000A091AF0DB091B00D85359105A105B1056C
:104DB00071F08A3A9105A105B105F9F48093AE0E20
:104DC0009093AF0EA093B00EB093B10E14C0809329
:104DD000AE0E9093AF0EA093B00EB093B10E8AEAD0
:104DE00090E0A0E0B0E08093AD0D9093AE0DA09365
:104DF000AF0DB093B00D0E9437030E946F02609315
:104E0000E00D7093E10D8093E20D9093E30D20EEA1
:104E100033E944E050E02093E40D3093E50D4093F6
:104E2000E60D5093E70D80911E0290E0A0E0B0E007
:104E30008093E80D9093E90DA093EA0DB093EB0DEC
:104E400080EC97E2A9E0B0E080931A0290931B02F5
:104E5000A0931C02B0931D0280914B0290E0A0E051
:104E6000B0E08093100290931102A0931202B093CD
:104E7000130280911E0290E0A0E0B0E0409160102B
:104E8000509161106091621070916310481759073A
:104E90006A077B0749F561E089E10E947D190E945C
:104EA0006B040E946F026093E00D7093E10D80939C
:104EB000E20D9093E30D20E93FE541E050E02093BF
:104EC000E40D3093E50D4093E60D5093E70D80918E
:104ED0000E0290E0A0E0B0E08093E80D9093E90D21
:104EE000A093EA0DB093EB0D80910E0290E0A0E04C
:104EF000B0E040916010509161106091621070912B
:104F00006310481759076A077B0709F048C087E90B
:104F100092E00E9486110E94641186E495E00E944E
:104F200086110E94641180912802853569F4909160
:104F30002702953509F48AEA809327028CE595E0EB
:104F40000E9486110E9464118FE992E00E948611EE
:104F500080912702853521F489E69BE00E94861125
:104F6000809127028A3A21F485E79BE00E9486110E
:104F70000E94641160E085E00E947D1910929D0DF1
:104F80000E948E0480914A0290E0A0E0B0E08093FD
:104F9000100290931102A0931202B0931302409159
:104FA0006010509161106091621070916310809157
:104FB0004A0290E0A0E0B0E0481759076A077B0773
:104FC00009F456C48091490290E0A0E0B0E048178F
:104FD00059076A077B0709F44BC44091230250919B
:104FE00024026091250270912602809145029091E1
:104FF0004602A0914702B0914802481759076A0734
:105000007B0761F18CE293E00E9486110E9464119B
:1050100082E795E00E94861180910A0290910B022E
:105020000E946E1184EA93E00E94861180914502ED
:10503000909146020E946E110E9464118091450277
:1050400090914602A0914702B091480280932302BA
:1050500090932402A0932502B0932602809123020C
:1050600090912402A0912502B09126028A3A9105DE
:10507000A105B10509F43BC390F4803A9105A1055F
:10508000B10509F4B2C0853A9105A105B105C9F091
:1050900085369105A105B10509F04AC3E7C1803BFA
:1050A0009105A105B10581F18F3F9105A105B105DC
:1050B00009F4F5C28D3A9105A105B10509F038C38F
:1050C0001EC1809144028A3A41F460924502709276
:1050D0004602809247029092480260E080E20E947D
:1050E0007D1960E081E10E947D1960E080E10E940D
:1050F0007D191092F00D1092F10D1092F20D109298
:10510000F30D1092F40D20C380910A0290910B02CE
:10511000A0910C02B0910D02803B9105A105B10553
:1051200061F060E080E20E947D1960E081E10E9410
:105130007D1960E080E10E947D1980915C10909162
:105140005D10A0915E10B0915F10803A9105A105AD
:10515000B105F1F48093450290934602A093470273
:10516000B093480261E080E20E947D191092F00D38
:105170001092F10D1092F20D1092F30D1092F40DA9
:105180001092EF0D1092EE0D1092ED0D1092EC0DAD
:1051900080915C1090915D10A0915E10B0915F10B5
:1051A00085369105A105B10509F0D6C28093450267
:1051B00090934602A0934702B093480261E080E2D8
:1051C0000E947D191092F00D1092F10D1092F20DC7
:1051D0001092F30D1092F40D1092EF0D1092EE0D4F
:1051E0001092ED0D1092EC0DB7C280910A029091D1
:1051F0000B02A0910C02B0910D02803B9105A1051C
:10520000B10529F08D3A9105A105B105D1F461E010
:1052100080E20E947D190E946F026093CE0D709310
:10522000CF0D8093D00D9093D10D80E89FE4A2E143
:10523000B0E08093CA0D9093CB0DA093CC0DB093AA
:10524000CD0D0E94CC062091F50D3091F60D821700
:10525000930764F02DEA30E040E050E020934502EF
:1052600030934602409347025093480261E081E147
:105270000E947D1980915C1090915D10A0915E104C
:10528000B0915F1085369105A105B10541F4809379
:10529000450290934602A0934702B09348020E94B1
:1052A0006F020091CE0D1091CF0D2091D00D309155
:1052B000D10DDC01CB01801B910BA20BB30B009134
:1052C000CA0D1091CB0D2091CC0D3091CD0D8017D2
:1052D0009107A207B30758F081EE8093C90D209281
:1052E00045023092460240924702509248020E9484
:1052F000CC06863292400CF42FC282EEC5C180915A
:105300000A0290910B02A0910C02B0910D02803A1A
:105310009105A105B105B1F40E946F026093C50D1E
:105320007093C60D8093C70D9093C80D80E89FE4DD
:10533000A2E1B0E08093C10D9093C20DA093C30D84
:10534000B093C40D0E94CC062091F50D3091F60D5E
:1053500082179307D4F060E081E10E947D190E94DA
:105360006F026093BD0D7093BE0D8093BF0D90933F
:10537000C00D2AEF30E040E050E02093B90D3093AB
:10538000BA0D4093BB0D5093BC0D0E94CC062091EA
:10539000F50D3091F60D82179307F4F40E946F0219
:1053A0000091BD0D1091BE0D2091BF0D3091C00D2B
:1053B000DC01CB01801B910BA20BB30B0091B90D4B
:1053C0001091BA0D2091BB0D3091BC0D8017910743
:1053D000A207B30708F098C280915C1090915D100D
:1053E000A0915E10B0915F1085369105A105B105C1
:1053F00029F0803A9105A105B10541F48093450259
:1054000090934602A0934702B09348020E946F0215
:105410000091C50D1091C60D2091C70D3091C80D9A
:10542000DC01CB01801B910BA20BB30B0091C10DD2
:105430001091C20D2091C30D3091C40D80179107BA
:10544000A207B30758F083EE8093C90D209245025E
:105450003092460240924702509248020E94CC0687
:10546000863292400CF478C184EE0EC180910A021B
:1054700090910B02A0910C02B0910D02853691051E
:10548000A105B105D1F061E080E20E947D190E9482
:105490006F026093B50D7093B60D8093B70D909326
:1054A000B80D80E89FE4A2E1B0E08093B10D909345
:1054B000B20DA093B30DB093B40D0E94CC06209111
:1054C000F70D3091F80D8217930724F461E081E124
:1054D0000E947D190E94CC062091F70D3091F80DA5
:1054E0002817390724F460E081E10E947D190091BA
:1054F000F70D1091F80D0E94CC06081B190B101621
:1055000011065CF40091F70D1091F80D0E94CC0685
:10551000D801A81BB90BCD0108C00E94CC06209170
:10552000F70D3091F80D821B930B209141023091C1
:105530004202821793070CF078C061E081E10E947B
:105540007D1964E670E080E090E00E9437020E94DE
:10555000CC069093EF0D8093EE0D0E946F02609346
:10556000F00D7093F10D8093F20D9093F30D61E0C7
:1055700080E10E947D196AE070E080E090E00E9486
:10558000370260E080E10E947D196AE070E080E00F
:1055900090E00E9437020E94CC069093ED0D80931C
:1055A000EC0D8CE293E00E9486110E9464118091C0
:1055B000EC0D9091ED0D8536910534F48AEA8093D7
:1055C000F40D83E895E005C087EE8093F40D80EA42
:1055D00095E00E9486110E9464118EEB95E00E9476
:1055E00086118091EE0D9091EF0D0E94F5110E94B1
:1055F000641180EE95E00E9486118091EC0D9091EF
:10560000ED0D0E94F5110E9464111092F60D10929A
:10561000F50D1092F80D1092F70D60924502709200
:10562000460280924702909248020E946F020091C7
:10563000B50D1091B60D2091B70D3091B80DDC016C
:10564000CB01801B910BA20BB30B0091B10D1091FC
:10565000B20D2091B30D3091B40D80179107A207C0
:10566000B30758F085EE8093C90D20924502309221
:10567000460240924702509248020E94CC0686326F
:1056800092400CF469C086EE8093C90D20924502C9
:105690003092460240924702509248025DC06092AA
:1056A000450270924602809247029092480260E062
:1056B00080E10E947D1960E081E10E947D190E94D5
:1056C0006B048CE293E00E9486110E94641181E0D9
:1056D00096E00E9486110E94641189E096E00E9483
:1056E00086118091C90D90E00E94F5111EC0609254
:1056F000450270924602809247029092480260E012
:1057000080E20E947D1960E081E10E947D1960E0E5
:1057100080E10E947D198CE293E00E9486110E9434
:10572000641181E096E00E9486110E9464110CC011
:1057300025EA30E040E050E02093450230934602F5
:1057400040934702509348021092F60D1092F50DC7
:105750001092F80D1092F70D80914402853561F496
:1057600085EA90E0A0E0B0E0809345029093460285
:10577000A0934702B09348028091230290912402A3
:10578000A0912502B091260280930A0290930B0209
:10579000A0930C02B0930D0210925C1010925D1059
:1057A00010925E1010925F1080914C028A3AF1F4D0
:1057B0000E946F02009168101091691020916A1088
:1057C00030916B10DC01CB01801B910BA20BB30B52
:1057D000009164101091651020916610309167104F
:1057E000081719072A073B0708F493C080914C0259
:1057F0008A3AF1F58AE50E94691290913002891384
:105800001FC084EB0E946107882371F08CE00E9426
:10581000250785EB0E942F0980E00E94F706182FCC
:1058200081E00E94F70602C080E010E08F870E94AE
:105830005707212F30E08F85D901B82BCD0102C049
:1058400080E090E080FD14C08AE50E94691290918A
:10585000300289130DC084EB0E946107882331F068
:105860008CE00E94250781E00E9425070E945707CF
:105870009091D60D80911402981306C00E945C0589
:105880000E949B200E943220A8950E9485150C94AE
:10589000412289E994E00E9486110E94641181E20C
:1058A00096E00E9486118091E80D9091E90D0E948A
:1058B0006E110E9464118091E80D9091E90DA09104
:1058C000EA0DB091EB0D8093100290931102A0931A
:1058D0001202B09313021092E00D1092E10D10929B
:1058E000E20D1092E30D1092E40D1092E50D10926E
:1058F000E60D1092E70D1092E80D1092E90D10924E
:10590000EA0D1092EB0DF7C861E081E10E947D196C
:1059100063CD85E580934C0260E08CE00E94AF1A75
:1059200085E396E00E9486110E9464118CE396E064
:105930000E9486110E94641185E496E00E948611FF
:105940000E94641153CFE2EBFEE01382128248EE14
:1059500053E060E070E0448355836683778387E596
:1059600092E09183808325E331E03587248724E327
:1059700031E03787268720E331E0318B208B21E32C
:1059800031E0338B228B22E331E0358B248B26E30D
:1059900031E0378B268B118E128E138E148EEFE42E
:1059A000FFE0138212824483558366837783918359
:1059B000808385EC90E09587848784EC90E09787DE
:1059C000868780EC90E0918B808B81EC90E0938BCC
:1059D000828B82EC90E0958B848B86EC90E0978BA9
:1059E000868B118E128E138E148EAAE4B0E188E19C
:1059F0008C9311961C921197EFEEFFE0B783A6836C
:105A000014821582108289E0818381E082838383FE
:105A1000138A128AEDE2F0E111821082138212825F
:105A200017821682118610861386128615861486B2
:105A300017861686118A108A138A128A158A148A82
:105A4000178A168AE3E0F0E1118210821382128233
:105A5000158214821782168215861486178616867A
:105A6000118A108A138A128A158A148A168A178A4A
:105A7000108E118E138E128E158E148E178E168E1A
:105A800011A210A213A212A215A214A217A216A26A
:105A900011A610A661E08CE20E94AC1960E070E0F3
:105AA000809148100E94E8198CE290E09093491090
:105AB0008093481061E08DE20E94AC1960E070E0D4
:105AC000809146100E94E8198DE290E09093471073
:105AD0008093461008952F923F924F925F926F925B
