:100000007AC10000A8C10000A6C10000A4C1000080
:10001000A2C10000A0C100009EC100009CC1000060
:100020009AC1000098C1000096C1000094C1000070
:1000300092C1000090C100008EC100008CC1000080
:100040008AC1000088C1000086C1000084C1000090
:1000500082C1000080C100007EC10000A2C3000078
:100060007AC10000E1C70000B6C7000074C10000FB
:1000700072C1000070C100006EC100006CC10000C0
:100080006AC1000068C1000066C1000064C10000D0
:1000900062C1000060C100005EC10000CCC300006E
:1000A0005AC1000058C1000056C1000054C10000F0
:1000B00052C1000050C100004EC100004CC1000000
:1000C0004AC1000048C1000046C1000044C1000010
:1000D00042C1000040C100003EC100003CC1000020
:1000E0003AC1000077087A0869086D087108B108FC
:1000F0007E08820888088C08900896089A089E084E
:10010000B108A408A808AC08005EBCE2613FDD832A
:10011000C29C7E20A3FD1F419DC3217FFCA2401EE7
:100120005F01E3BD3E6082DC237D9FC1421CFEA0D7
:10013000E1BF5D0380DE3C62BEE0025CDF81633DC7
:100140007C22C09E1D43A1FF4618FAA427799BC5B7
:1001500084DA3866E5BB5907DB856739BAE40658A7
:100160001947A5FB7826C49A653BD987045AB8E697
:10017000A7F91B45C6987A24F8A6441A99C7257B87
:100180003A6486D85B05E7B98CD2306EEDB3510F77
:100190004E10F2AC2F7193CD114FADF3702ECC9267
:1001A000D38D6F31B2EC0E50AFF1134DCE90722C57
:1001B0006D33D18F0C52B0EE326C8ED0530DEFB147
:1001C000F0AE4C1291CF2D73CA947628ABF5174937
:1001D0000856B4EA6937D58B5709EBB536688AD427
:1001E00095CB2977F4AA4816E9B7550B88D6346A17
:1001F0002B7597C94A14F6A8742AC896154BA9F707
:10020000B6E80A54D7896B35000022002500280083
:100210002B002E003100340002010000050108010E
:100220000B0105050505070508080808020202027A
:100230000A0A080804040404010101010101010182
:100240000303030303030303040707070C0C0C0C4D
:100250000C0C0C0C02020202060606060606060636
:100260000B0B0B0B0B0B0B0B0102102020080810C3
:100270002040102040800201020108040201010216
:1002800004081020408080402010080402018004EF
:10029000020180402010080402010804020101024A
:1002A0000408102040800102040810204080000053
:1002B0000A0B02090C0D0E080703040100000000E0
:1002C000000000000000000000000000000000002E
:1002D00000000000000000000000121110000000EB
:1002E000000000000000000000000000000000000E
:1002F00000000000460D11241FBECFEFD1E2DEBF8B
:10030000CDBF00E00CBF12E0A0E0B2E0E4EBFFE103
:1003100000E00BBF02C007900D92A637B107D9F7D6
:1003200024E0A6E7B2E001C01D92AF31B207E1F7C9
:1003300011E0CBE7D1E000E006C021970109802F52
:10034000FE010E94B80FCA37D10780E00807A9F75D
:10035000F9D70C94D80F54CEFC01538D448D252F22
:1003600030E0842F90E0821B930B541710F0CF964F
:10037000089501970895FC01918D828D981761F081
:10038000828DDF01A80FB11D5D968C91928D9F5FCC
:100390009F73928F90E008958FEF9FEF0895FC0177
:1003A000918D828D981731F0828DE80FF11D858D2A
:1003B00090E008958FEF9FEF0895FC01918D228DBD
:1003C000892F90E0805C9F4F821B91098F73992742
:1003D000089580E090E0892B19F0F4D5811125C0B3
:1003E00080E090E0892B41F080E090E0892B21F0C3
:1003F0000E94000081111CC080E090E0892B41F038
:1004000080E090E0892B21F00E940000811113C050
:1004100080E090E0892BA1F080E090E0892B81F0D2
:100420000E94000081110AC008950E940000D8CFE8
:100430000E940000E1CF0E940000EACF0C9400006F
:1004400008953FB7F8948091280390912903A091D3
:100450002A03B0912B0326B5A89B05C02F3F19F0A6
:100460000196A11DB11D3FBFBA2FA92F982F882734
:10047000820F911DA11DB11DBC01CD0143E0660F8E
:10048000771F881F991F4A95D1F7089585ED8093AE
:10049000BC008091BC0084FDFCCF1092ED03089558
:1004A0004091DA02262F30E0240F311D2132310530
:1004B000DCF42091ED032430C9F4FC0180E090E0ED
:1004C000861758F43091DA022191DC01A854BD4F0F
:1004D000A30FB11D2C930196F3CF8091DA02680F20
:1004E0006093DA0280E0089581E0089582E0089543
:1004F0000895E091F1038091F003E81730F4F0E003
:10050000E856FD4F808190E008958FEF9FEF0895AA
:100510009091F1038091F003981750F4E92FF0E0E7
:10052000E856FD4F208130E09F5F9093F10302C0B9
:100530002FEF3FEFC90108958091F00390E02091E3
:10054000F103821B91090895CF92DF92EF92FF92FF
:100550000F931F93CF93DF937C01262F972F8A0150
:1005600080919702882391F0C62FD72F6E01C40E79
:10057000D51ECC15DD0569F06991D701ED91FC918F
:100580000190F081E02DC7011995F3CF642F822FE0
:1005900087DFC801DF91CF911F910F91FF90EF90FE
:1005A000DF90CF900895CF93DF931F92CDB7DEB742
:1005B0006983209197022223D1F02091EE0320320B
:1005C00040F021E030E0FC013383228380E090E0C2
:1005D00014C08091EF03E82FF0E0E958FD4F9981B6
:1005E00090838F5F8093EF038093EE0304C061E0FC
:1005F000CE01019655DF81E090E00F90DF91CF9121
:100600000895089580E090E00895FC01848DDF0155
:10061000A80FB11DA35ABF4F2C91848D90E0019675
:100620008F739927848FA689B7892C93A089B18964
:100630008C9180648C93938D848D981306C002886E
:10064000F389E02D80818F7D80830895EF92FF9262
:100650000F931F93CF93DF93EC0181E0888F9B8DE5
:100660008C8D981305C0E889F989808185FD23C0A8
:10067000F62E0B8D10E00F5F1F4F0F731127E02E2A
:100680008C8DE8120BC00FB607FCFACFE889F98908
:10069000808185FFF5CFCE01B8DFF2CF8B8DFE01D3
:1006A000E80FF11DE35AFF4FF0820B8FEA89FB89B7
:1006B0008081806207C0EE89FF896083E889F989BB
:1006C00080818064808381E090E0DF91CF911F91F1
:1006D0000F91FF90EF900895CF93DF93EC01888DF9
:1006E0008823C1F0EA89FB89808185FD05C0A8893E
:1006F000B9898C9186FD0EC00FB607FCF5CF8081BD
:1007000085FFF2CFA889B9898C9185FFEDCFCE0105
:100710007CDFE8CFDF91CF9108958F929F92AF92C7
:10072000BF92CF92DF92EF92FF926B017C0189DE44
:100730004B015C01C114D104E104F104E9F081DE54
:10074000DC01CB0188199909AA09BB09883E9340AD
:10075000A105B10578F321E0C21AD108E108F1083A
:1007600088EE880E83E0981EA11CB11CC114D10430
:10077000E104F10421F7DECFFF90EF90DF90CF90FE
:10078000BF90AF909F908F9008952FB7F89460918D
:1007900024037091250380912603909127032FBF96
:1007A00008951F920F920FB60F9211242F933F932B
:1007B0008F939F93AF93BF938091240390912503D0
:1007C000A0912603B09127033091230326E0230F45
:1007D0002D3720F40296A11DB11D05C029E8230F75
:1007E0000396A11DB11D20932303809324039093AE
:1007F0002503A0932603B0932703809128039091AB
:100800002903A0912A03B0912B030196A11DB11DCC
:100810008093280390932903A0932A03B0932B037A
:10082000BF91AF919F918F913F912F910F900FBEEC
:100830000F901F9018951F920F920FB60F921124D0
:100840000BB60F922F933F934F935F936F937F93CA
:100850008F939F93AF93BF93EF93FF938091B900D2
:10086000887F803609F49CC068F5883209F45BC043
:1008700090F4803109F454C038F4882309F4F6C0A8
:10088000883009F44DC0F5C0883109F44CC080327D
:1008900009F45DC0EEC0803409F468C048F48033C8
:1008A00009F455C0883309F0E4C08093FF02D8C032
:1008B000803509F44FC0883509F45DC0883409F0EB
:1008C000D8C0D6C0883909F4C7C0A8F4883709F45D
:1008D00067C038F4883609F463C0803709F460C013
:1008E000C8C0883809F4B8C0803909F45FC08038BE
:1008F00009F0BFC05BC0803B09F486C038F4803A81
:1009000009F466C0883A09F47FC0B3C0803C09F49A
:10091000A7C0883C09F4A4C0883B09F48AC0A9C0D8
:100920008091220310C09091210380912003981799
:1009300070F5E091210381E08E0F80932103F0E0B8
:10094000E050FD4F80818093BB0085EC86C0809392
:10095000FF028EC0E091210381E08E0F809321037E
:100960008091BB00F0E0E050FD4F80839091210327
:10097000809120036EC0E091210381E08E0F80936F
:1009800021038091BB00F0E0E050FD4F8083809117
:10099000EC0381116DC081E08093EB0384EA61C0B8
:1009A00083E08093ED031092FE02CFCF8091FE0290
:1009B000803208F051C0E091FE0281E08E0F8093FA
:1009C000FE028091BB00F0E0E252FD4F8083BDCF7C
:1009D00085EC8093BC001092ED038091FE02803282
:1009E00030F4E091FE02F0E0E252FD4F108260919F
:1009F000FE0270E0E091DC02F091DD028EED92E00B
:100A000019951092FE0235C084E08093ED03109298
:100A1000DB021092DA02E091D802F091D902199526
:100A20008091DA02811105C081E08093DA02109290
:100A3000B802E091DB0281E08E0F8093DB02F0E0F0
:100A4000E854FD4F80818093BB009091DB02809140
:100A5000DA02981708F479CF85E88093BC0009C0C2
:100A600085EC8093BC001092ED0303C01092FF024E
:100A70000DDDFF91EF91BF91AF919F918F917F918C
:100A80006F915F914F913F912F910F900BBE0F90FF
:100A90000FBE0F901F901895EF92FF921F93CF9368
:100AA000DF93F82E192F8CE292E0FCD3CF2DD12FBB
:100AB00010E08FE292E0F6D37E018881803118F455
:100AC00082E392E0EFD32196F701608170E080E04D
:100AD00090E040E1F8D3173019F084E392E0E2D3DC
:100AE0001F5F183031F787E392E0DF91CF911F91BC
:100AF000FF90EF90D7C3DC01E0E0615038F08D91BA
:100B0000E827F0E0E85FFE4FE491F7CF8E2F0895DD
:100B1000FC0180819091ED039111FCCF91E09093C5
:100B2000ED039093EC032FEF2093FF02109221032B
:100B3000109220039093220390912203880F892B17
:100B4000809322038091EB03813061F41092EB03D8
:100B5000809122038093BB008091BC0083FDF8CF7D
:100B600085EC01C085EE8093BC008091ED0381305F
:100B7000E1F380912103811103C08091210301C021
:100B800081E0A0E0B3E028E932E0F9019E2F921B5A
:100B9000981718F49D919193F9CF1092F1038093D7
:100BA000F00382EF93E0B4CC08952091EE0390918E
:100BB0007602213208F04AC08091ED038111FCCF0A
:100BC00032E03093ED0331E03093EC033FEF3093AC
:100BD000FF021092210320932003A7E7B2E040E038
:100BE00053E0FA013E2F341B321718F43D91319334
:100BF000F9CF1092220320912203990F922B909308
:100C000022039091EB03913061F41092EB039091E9
:100C100022039093BB009091BC0093FDF8CF95EC1C
:100C200001C095EE9093BC009091ED039230E1F3FA
:100C30009091FF029F3F79F08091FF02803241F056
:100C40008091FF02803331F084E005C081E003C071
:100C500082E001C083E01092EF031092EE03109245
:100C600097020895FC01808191E090939702809310
:100C700076021092EF031092EE0308951F93CF9324
:100C8000DF93EC01162FEEDF61EE82EF93E08BDC59
:100C9000612F82EF93E087DCCE01DF91CF911F912E
:100CA00084CFEF92FF920F931F93CF93DF93EC01CA
:100CB00008EE13E084E2E82EF12C60EFCE01DEDFD7
:100CC000CE0126DF80FF08C0F7013197F1F7015010
:100CD000110999F791E09983DF91CF911F910F91BD
:100CE000FF90EF900895CF93DF93EC01DADFCE0110
:100CF000B9DF67E882EF93E056DC60E882EF93E0CB
:100D000052DCCE0152DFCE01CCDF85FB882780F993
:100D1000DF91CF9108951F93CF93DF93EC01162FAE
:100D2000C0DFCE019FDF62ED82EF93E03CDC212F3C
:100D300030E02095309584E0220F331F8A95E1F74B
:100D4000612F622B82EF93E02EDCCE012EDFCE01ED
:100D5000DFDE811711F084E08983DF91CF911F914D
:100D60000895EF92FF921F93CF93DF931F92CDB719
:100D7000DEB77C01162F498394DF4981442349F073
:100D800063ECC7017BDFC701C3DE682F6460C70166
:100D9000C2DFC70167DF65EA82EF93E004DC612F01
:100DA00082EF93E000DCC7010F90DF91CF911F919C
:100DB000FF90EF90FACECF92DF92EF92FF920F93D7
:100DC0001F93CF93DF931F92CDB7DEB78C01F62E22
:100DD00040E065E57983C5DFCF2C7981D72E760198
:100DE00088E0E80EF11CF60161916F0140E0C80156
:100DF000B8DFCE14DF04B9F70F90DF91CF911F91C8
:100E00000F91FF90EF90DF90CF900895CF93DF93F5
:100E1000EC0147DF63ECCE0131DFCE0179DE60E02B
:100E2000CE0179DFCE013DDFCE011CDF64EB82EF26
:100E300093E0B9DBCE01B9DECE0133DF82FF02C021
:100E400092E0998386958170DF91CF9108957F928A
:100E50008F929F92AF92BF92CF92DF92EF92FF92CA
:100E60000F931F93CF93DF93FC012385222311F06F
:100E700080E06EC04B01EC01C9DF8823C9F3CE01CD
:100E800010DF40E060EFCE016CDF712CF12CAA2462
:100E9000A394B12C0F2D06950695069510E08F2D85
:100EA0008770650101C0CC0C8A95EAF78A85F8162F
:100EB00030F4FE01E00FF11FE280EC2004C0EE24CC
:100EC000E394F812E12CCE01ECDECE01CBDE68E734
:100ED00082EF93E068DBE11002C060E001C060E8EF
:100EE00082EF93E060DBCE0160DECE01DADE282FF8
:100EF0002074982F907885FF03C0222331F0B8CF5B
:100F0000211103C0992349F002C0992339F0FE0151
:100F1000E00FF11F8281C82A07C07F2CFE01E00F7D
:100F2000F11FC0948281C822C282F394F0E4FF12C0
:100F3000B1CF7A86711002C081E08B87DE011296F4
:100F4000F4012A968D918193AC17BD07D9F781E002
:100F5000DF91CF911F910F91FF90EF90DF90CF9095
:100F6000BF90AF909F908F907F900895CF92DF9227
:100F7000EF92FF920F931F93CF93DF936C017A014F
:100F80008B01C0E0D0E0CE15DF0589F0D8016D916E
:100F90008D01D601ED91FC910190F081E02DC6010B
:100FA0001995892B11F47E0102C02196ECCFC7015F
:100FB000DF91CF911F910F91FF90EF90DF90CF9035
:100FC0000895F2D78EE493E0F8D921E0892B09F453
:100FD00020E0822F08951F920F920FB60F921124D6
:100FE0000BB60F922F933F934F935F936F937F9323
:100FF0008F939F93AF93BF93EF93FF938EE493E010
:1010000004DBFF91EF91BF91AF919F918F917F9101
:101010006F915F914F913F912F910F900BBE0F9069
:101020000FBE0F901F9018951F920F920FB60F9240
:1010300011240BB60F922F938F939F93EF93FF93EF
:10104000E0915E03F0915F038081E0916403F09191
:10105000650382FD12C09081809167038F5F8F735B
:1010600020916803821751F0E0916703F0E0E25BA2
:10107000FC4F958F8093670301C08081FF91EF91B2
:101080009F918F912F910F900BBE0F900FBE0F90DD
:101090001F90189590E0FC01E255FD4F4491FC0132
:1010A000E859FD4F2491FC01EE5DFD4F9491992389
:1010B00009F465C0442309F454C050E0FA013197A3
:1010C000E231F10508F04DC08827EE58FF4F8F4FF1
:1010D0004FC7809180008F7707C0809180008F7DFF
:1010E00003C080918000877F809380003AC084B5E0
:1010F0008F7702C084B58F7D84BD33C08091B000EE
:101100008F7703C08091B0008F7D8093B00029C09D
:10111000809190008F7707C0809190008F7D03C0F1
:1011200080919000877F809390001BC08091A000E9
:101130008F7707C08091A0008F7D03C08091A000B1
:10114000877F8093A0000DC0809120018F7707C01A
:10115000809120018F7D03C080912001877F809343
:101160002001E92FF0E0EE0FFF1FE85FFD4FA59192
:10117000B4918FB7F894EC912E2B2C938FBF0895D8
:1011800004DB84E98093BC008091BC0084FDFCCF2B
:1011900080E00895EF92FF920F931F93CF93DF9318
:1011A0008B01BC01809104049091050404DE40E0B1
:1011B0006EEB8091040490910504D3DDE801780181
:1011C00089E0E80EF11C0091040410910504C801A7
:1011D00068DDC80147DD66E982EF93E0E4D9C80124
:1011E000E4DCC8015EDD61EEC80148DDC80190DCC9
:1011F0008993CE15DF0539F7809104049091050499
:1012000005DE91E0813009F090E0892FDF91CF91E8
:101210001F910F91FF90EF9008950F931F93CF931D
:10122000DF93CDB7DEB729970FB6F894DEBF0FBEB8
:10123000CDBFFC012081203149F18C018091040453
:1012400090910504E3DD8823F9F0BE016F5F7F4FC5
:10125000C801A0DF8823C1F068E0CE0101964BDC15
:101260009985891311C08D818F3361F020F48F31FE
:1012700059F489E00CC08F3519F08F3739F004C06C
:101280008BE005C08AE003C080E001C08CE02996B5
:101290000FB6F894DEBF0FBECDBFDF91CF911F9187
:1012A0000F910895009761F0FC0101900020E9F78B
:1012B0003197AF01481B590BBC018EE493E056CE29
:1012C00080E090E008958F929F92AF92BF920F932B
:1012D0001F93CF93DF93CDB7DEB7A1970FB6F894E6
:1012E000DEBF0FBECDBF19A2423008F44AE08E0126
:1012F0000F5D1F4F842E912CA12CB12CA5019401C0
:1013000015D6E62FB901CA0101501109EA3014F4CB
:10131000E05D01C0E95CD801EC93232B242B252B45
:1013200069F7C801BFDFA1960FB6F894DEBF0FBE04
:10133000CDBFDF91CF911F910F91BF90AF909F9044
:101340008F900895CF93DF93CDB7DEB762970FB636
:10135000F894DEBF0FBECDBF789484B5826084BDA3
:1013600084B5816084BD85B5826085BD85B58160A9
:1013700085BD80916E00816080936E001092810027
:1013800080918100826080938100809181008160E2
:1013900080938100809180008160809380008091A3
:1013A000B10084608093B1008091B000816080932F
:1013B000B0008091910082608093910080919100B3
:1013C0008160809391008091900081608093900073
:1013D0008091A10082608093A1008091A100816032
:1013E0008093A1008091A00081608093A0008091F3
:1013F000210182608093210180912101816080938D
:1014000021018091200181608093200180917A00E8
:10141000846080937A0080917A00826080937A0061
:1014200080917A008E7F80937A0080917A00806824
:1014300080937A001092C10010921204589A599A1F
:101440008091B9008E7F8093B9008091B9008D7F23
:101450008093B90080E28093B80084E48093BC005C
:1014600080911204823009F468C010922C038DD947
:1014700084EA8093BC008091BC0087FFFCCF809100
:10148000B900887F883031F08091B900887F803141
:1014900009F0D0C210E010932C0311114EC080EE61
:1014A0008093BB0072D984E88093BC008091BC001B
:1014B00087FFFCCF8091B900887F8831A1F08091AF
:1014C000B900887F803479F01091B900187F80913D
:1014D000B900887F803231F08091B900887F8834EC
:1014E00009F0B9C24DDE10932C03111126C082E021
:1014F0008093BB004AD984E88093BC008091BC00F3
:1015000087FFFCCF8091B900887F883279F01091F5
:10151000B900187F8091B900887F803311F430DEE4
:1015200005C01092BC0084E48093BC0010932C038F
:10153000111103C025DE80932C03E0915E03F0912E
:101540005F0382E08083E0915A03F0915B03108295
:10155000E0915C03F0915D0383E380831092660366
:10156000E0916203F091630386E08083E091600381
:10157000F0916103808180618083E0916003F0914C
:101580006103808188608083E0916003F091610352
:10159000808180688083E0916003F09161038081A5
:1015A0008F7D80838AE392E07DDE89E492E07ADEBB
:1015B000E0910404F091050412861386DF0112966F
:1015C0003A961D92AE17BF07E1F7109202041092EF
:1015D000030411E0BE016F5F7F4F8091040490917E
:1015E000050435DC882309F456C067E0CE01019676
:1015F00082DA98858913EECF8091FE03811122C093
:10160000809104049091050401DCBE016F5F7F4F5F
:101610008091040490910504CEDB40E064EB80915E
:101620000404909105049DDB8091040490910504CD
:101630005ADB082F8091040490910504E7DB002316
:1016400009F40FC20091FF03CE010196E6DD801779
:1016500018F48091FF0303C0CE010196DEDD809374
:10166000FF03809102048F5F809302048981883296
:1016700061F030F4803149F0823209F0ABCF05C01F
:101680008B3319F0823409F0A5CF809103048F5F6A
:10169000809303049FCF009102048AE090E06BD214
:1016A000081721F0602F8AE090E06DD2E12CF12C38
:1016B000BBE0CB2ED12C10E05E0142E1A40EB11CA8
:1016C000E016F1060CF03BC08E2CE0910404F09182
:1016D000050412861386DF0112963A961D92AE1704
:1016E000BF07E1F7912CBE01665F7F4F8091040434
:1016F00090910504ACDB8111B7C1CE010A96CCD91B
:10170000CE010A963C014601F30161913F01C401FB
:101710006A8B31D26A89681711F0C40134D2FFEFA5
:101720008F1A9F0A6A147B0479F789E492E0BADD84
:1017300048E0C40ED11C5FEFE51AF50AC1CF8CE476
:1017400092E0B0DD89E492E0ADDD809104049091F7
:1017500005045CDB40E06CEC80910404909105048E
:1017600000DB4091FE0364E4809104049091050441
:10177000F8DA809100048823D1F1E091FF03E95069
:10178000E33040F4F0E0EE0FFF1FE050FE4F008129
:10179000118102C00EEE12E080910104882309F14C
:1017A0008091FE0381111DC00E94C5034B015C01A5
:1017B0006801110FEE08FF08809104049091050460
:1017C00092DA8130A1F00E94C503DC01CB018C19B3
:1017D0009D09AE09BF0988159905AA05BB0560F3E7
:1017E00006C0B801110F880B990B0E948D038AE087
:1017F00090E0C1D1FBE0AF2EB12C00E010E0E82E6C
:10180000F12C0E151F050CF00CC1CE010A964C01EF
:10181000650198E0C90ED11CC501ADD1F4018193D9
:101820004F01FFEFAF1ABF0AAC14BD04A9F7CE01F8
:101830000A9632D987E692E035DD809104049091D2
:101840000504E4DA882309F41EC1BE016F5F7F4FEF
:10185000CE010A969FDC882309F415C168E0CE0109
:10186000019649D9998589130EC1698148E0649F21
:10187000B00111248A81282F30E0322F2227330F24
:10188000330F330F262B372B8A858031C1F46885BF
:1018900070E08F81FB01E81BF109CF019695982F2D
:1018A0008827979587952FD360517109207F53E042
:1018B000220F331F5A95E1F7620F731F01C0B90160
:1018C0006138F4EE7F07A4F0072E000C880B990B0B
:1018D000FFD120E030E040E05CE3AED24B015C01A0
:1018E0009B01AC010CD3882349F08AE692E01EC02C
:1018F000812C912C8EEFA82E82ECB82E240135017C
:10190000E89477F82FEF3FEF4FE75FE7C301B201AD
:10191000F6D281110DC02FEF3FEF4FE75FE7C30114
:10192000B201A4D1181624F48EE692E0BBDC72C09A
:101930002FEF3FEF4FE75FE4C501B40179D21816EE
:101940001CF482E792E0F2CF2FEF3FEF4FE75FEC1E
:10195000C501B4018BD187FDF4CF20E030E0A901AF
:10196000C501B40183D187FF0FC0E0914E03F09110
:101970004F030190F081E02D6DE28EE493E0199524
:10198000B7FAB094B7F8B0942AE037ED43EA5BE3D6
:10199000C501B40107D12B013C016CD14B015C01A5
:1019A00095D19B01AC01C301B201FBD02B013C01DD
:1019B0004AE0C501B40187DCE0914E03F0914F038A
:1019C0000190F081E02D6EE28EE493E0199520E025
:1019D00030E040E251E4C301B2012ED22B013C01C0
:1019E00049D14B01A12CB12C4AE0C501B4016BDCFB
:1019F000C501B4016BD19B01AC01C301B201D1D0CF
:101A000020E030E040E251E417D234D180E090E0B1
:101A10004AE059DC89E492E045DC0F5F1F4F560134
:101A2000F0CE60E177E280E090E00E948D030E94BA
:101A3000E901F7CF8091B900887F883341F4109194
:101A4000B9001092BC0084E48093BC0002C01091E5
:101A5000B900187F20CD1092BC0084E48093BC00B4
:101A600042CD1093FE03EECD981008C067E0CE0182
:101A70000A9641D89989891709F43FCE939489141D
:101A800008F43BCE30CE60E874EE1ACF0F931F936C
:101A9000CF93EEE4F3E01382128288EE93E0A0E0AD
:101AA000B0E084839583A683B7832CE032E0318352
:101AB000208325EC30E03587248724EC30E037871D
:101AC000268720EC30E0318B208B21EC30E0338B0B
:101AD000228B22EC30E0358B248B26EC30E0378BE8
:101AE000268B118E128E138E148EE2EFF3E013828A
:101AF000128284839583A683B7838EE192E09183DB
:101B000080831092120403E114E088E1F8018083DD
:101B100011821092F1031092F0031092EF031092D1
:101B2000EE031092ED03C1E0C093EC031092EB03BF
:101B300084E1B0DA85E1AEDAE9EBF0E080818E7F16
:101B4000808380818D7F808380E28093B80085E4EC
:101B50008093BC00EEEFF3E01783068314821582B6
:101B6000108289E08183C283C383138A128ACF9152
:101B70001F910F910895F999FECF92BD81BDF89AFA
:101B8000992780B50895262FF999FECF1FBA92BDE7
:101B900081BD20BD0FB6F894FA9AF99A0FBE01964E
:101BA00008955058BB27AA270ED008C1F9D030F0AD
:101BB000FED020F031F49F3F11F41EF4EEC00EF47D
:101BC000E095E7FBE4C0E92F0AD180F3BA1762077A
:101BD00073078407950718F071F49EF522C10EF47F
:101BE000E0950B2EBA2FA02D0B01B90190010C012D
:101BF000CA01A0011124FF27591B99F0593F50F445
:101C0000503E68F11A16F040A22F232F342F44279C
:101C1000585FF3CF469537952795A795F040539594
:101C2000C9F77EF41F16BA0B620B730B840BBAF064
:101C30009150A1F0FF0FBB1F661F771F881FC2F7CF
:101C40000EC0BA0F621F731F841F48F487957795E3
:101C50006795B795F7959E3F08F0B3CF9395880F9A
:101C600008F09927EE0F9795879508956CD008F4A2
:101C700081E00895BCD088F09F5790F0B92F992744
:101C8000B751A0F0D1F0660F771F881F991F1AF087
:101C9000BA95C9F712C0B13081F0C3D0B1E0089550
:101CA000C0C0672F782F8827B85F39F0B93FCCF3D1
:101CB000869577956795B395D9F73EF4909580957D
:101CC000709561957F4F8F4F9F4F0895E89409C09D
:101CD00097FB3EF490958095709561957F4F8F4F5F
:101CE0009F4F9923A9F0F92F96E9BB279395F69575
:101CF000879577956795B795F111F8CFFAF4BB0FF3
:101D000011F460FF1BC06F5F7F4F8F4F9F4F16C056
:101D1000882311F096E911C0772321F09EE8872FE0
:101D2000762F05C0662371F096E8862F70E060E09C
:101D30002AF09A95660F771F881FDAF7880F969515
:101D4000879597F90895990F0008550FAA0BE0E8B9
:101D5000FEEF16161706E807F907C0F0121613066D
:101D6000E407F50798F0621B730B840B950B39F4AD
:101D70000A2661F0232B242B252B21F408950A2613
:101D800009F4A140A6958FEF811D811D089597F953
:101D90009F6780E870E060E008959FEF80EC089511
:101DA00000240A941616170618060906089500243A
:101DB0000A9412161306140605060895092E0394B4
:101DC000000C11F4882352F0BB0F40F4BF2B11F428
:101DD00060FF04C06F5F7F4F8F4F9F4F089557FD87
:101DE0009058440F551F59F05F3F71F04795880F89
:101DF00097FB991F61F09F3F79F087950895121620
:101E000013061406551FF2CF4695F1DF08C01616CB
:101E100017061806991FF1CF86957105610508947C
:101E20000895E894BB2766277727CB0197F9089593
:101E30008ADF08F48FEF08950BD0C0CFB1DF28F010
:101E4000B6DF18F0952309F0A2CFA7CF1124EACF6F
:101E5000C6DFA0F3959FD1F3950F50E0551F629F09
:101E6000F001729FBB27F00DB11D639FAA27F00DF3
:101E7000B11DAA1F649F6627B00DA11D661F829F1A
:101E80002227B00DA11D621F739FB00DA11D621FFF
:101E9000839FA00D611D221F749F3327A00D611D1C
:101EA000231F849F600D211D822F762F6A2F1124FE
:101EB0009F5750408AF0E1F088234AF0EE0FFF1F51
:101EC000BB1F661F771F881F91505040A9F79E3F88
:101ED000510570F05CCFA6CF5F3FECF3983EDCF38A
:101EE000869577956795B795F795E7959F5FC1F7C5
:101EF000FE2B880F911D9695879597F9089523DFFE
:101F0000880B990B089597FB072E16F4009406D0C2
:101F100077FD08D035D007FC05D03EF4909581952B
:101F20009F4F0895709561957F4F0895A1E21A2EF5
:101F3000AA1BBB1BFD010DC0AA1FBB1FEE1FFF1F6D
:101F4000A217B307E407F50720F0A21BB30BE40BBD
:101F5000F50B661F771F881F991F1A9469F7609504
:101F60007095809590959B01AC01BD01CF010895BE
:101F7000EE0FFF1F881F8BBF0790F691E02D19947D
:101F8000AA1BBB1B51E107C0AA1FBB1FA617B7079F
:101F900010F0A61BB70B881F991F5A95A9F78095BB
:101FA0009095BC01CD01089581E090E0F89400C0C7
:041FB000F894FFCFD3
:101FB4005E00BC0077010000000000002603B607A5
:101FC400AC016C03DD01BB01CF0100000000D302B2
:101FD400A402020378029C02880279027B2000306A
:101FE400780030002C2000207D00445331384232E8
:101FF4003020736561726368000D0A005265717563
:10200400657374696E672074656D7065726174754B
:102014007265732E2E2E003A20006E616E00696E7A
:0620240066006F76660005
:00000001FF
